:020000040800F2
:10000000C80E00204501000865170008C512000849
:100010001D170008090C00080B2300080000000051
:10002000000000000000000000000000851B000828
:100030008D0D0008000000004D1A0008091D000881
:100040005F0100085F0100085F0100085F01000810
:100050005F0100085F0100085F0100085F01000800
:100060005F0100085F0100085F0100085F010008F0
:100070005F0100085F0100085F0100085F010008E0
:100080005F0100085F0100085F0100085F010008D0
:100090005F0100085F0100085F0100085F010008C0
:1000A0005F0100085F0100085F0100085F010008B0
:1000B0005F0100085F0100085F0100085F010008A0
:1000C0005F0100085F0100085F0100085F01000890
:1000D0005F0100087D1E0008A11E00085F010008E6
:1000E000890E00085F0100085F0100085F01000839
:1000F0005F0100085F0100085F0100085F01000860
:100100005F0100085F0100085F0100085F0100084F
:100110005F0100085F0100085F0100085F0100083F
:100120005F0100085F0100085F0100085F0100082F
:10013000DFF80CD000F08CFB00480047D5300008F9
:10014000C80E00200648804706480047FEE7FEE745
:10015000FEE7FEE7FEE7FEE7FEE7FEE7FEE7FEE777
:10016000491D00083101000830B480EA010202F0A4
:10017000004530F0004221F0004013D090B1C30D93
:10018000D40DC2F31601C0F31600E41A41F40001C5
:1001900040F400027D34914201D3641C00E0490028
:1001A000002C02DA30BC002070474FF4000000231E
:1001B000914201D3891A034340084FEA4101F7D124
:1001C00051B1914202D14FF0004105E002D24FF00F
:1001D000010101E06FF0010103EBC450284430BC81
:1001E00000F000BA2DE9FE4F804681EA0300C00FFF
:1001F0000C46009021F0004123F00045B8EB0200CE
:10020000A94105D24046214690461C460B4602466F
:1002100023F00040104347D0270DC7F30A00C3F373
:100220000A510290401A019040286BDAC3F3130080
:1002300040F4801B0098924620B10023D2EB030AC1
:1002400063EB0B0B01985946C0F14002504600F099
:1002500098F906460D4650465946019A00F0B0F905
:1002600010EB08006141002487EA115284EAE77329
:100270001A4340D0009A62B3019A012A4FEA07520A
:1002800015DC001B61EB02014FF0004202EA07524D
:10029000CDE90042001C41F5801132462B4600F0AA
:1002A000E7F903B0BDE8F08F40462146F9E7001BAF
:1002B00061EB0201001C41F5801300185B4120181E
:1002C000A2F5001747EB030140EAD570B6196D415E
:1002D00011E06D084FEA360645EAC0754FEA07524D
:1002E000001B61EB0201001C41F5801149084FEA37
:1002F00030000019514132462B4603B0BDE8F04FA3
:1003000000F0A7B90098012240000023D0EB0202C0
:1003100063EBE073009821464FEAE074B8EB00000D
:1003200061EB0401E9E783F000435BE781F0004102
:1003300058E72DE9F04D81EA030404F0004B21F069
:10034000004514464FF0000A23F0004150EA050230
:1003500020D054EA01021DD0C5F30A570246C5F366
:100360001303C1F31300C1F30A5640F4801543F49C
:100370008013A7EB0608101BD64608F2FD3873EB76
:10038000050002D308F1010801E092185B41B8F1C1
:10039000000F03DA00200146BDE8F08D00204FF485
:1003A0008011064684460EE0171B73EB050705D344
:1003B000121B63EB050306434CEA010C49084FEAA4
:1003C000300092185B4150EA0107EDD152EA030078
:1003D00012D082EA040083EA0501084305D0101B0D
:1003E000AB4106D20122002306E000224FF0004379
:1003F00002E06FF0010253101AEB06004CEB0851BB
:1004000010EB0A0041EB0B01BDE8F04D00F021B903
:10041000C10F80EAE0700844CA079623002100F06B
:10042000EAB896230022114600F0E5B80EB5C10FD8
:1004300080EAE0700844CA07002140F233438DE8A7
:100440000E000A460B4600F013F903B000BDC1F3DD
:100450000A5210B5C1F3130140F2FF3341F4801189
:100460009A4201DA002010BD40F233439A42A2F2D0
:10047000334203DC524200F093F810BD904010BDAF
:1004800000F0004230F000400AD0C10D01F560716B
:10049000C0F3160042EA0151C208400711437047F9
:1004A00000200146704701F0004330B421F00041C4
:1004B00050EA010206D00A0DA2F56072C1F31301E1
:1004C000002A02DC30BC00207047440F44EAC1041B
:1004D000C100E01830BC00EBC25000F083B800004F
:1004E000002801DBC0F10040002901DBC1F100411F
:1004F0008142704730B50B4601460020202201247E
:1005000009E021FA02F59D4205D303FA02F5491BE1
:1005100004FA02F52844151EA2F10102F1DC30BDF7
:100520002DE9F05F0546002092469B468846064628
:10053000814640241BE0284641464746224600F0BB
:100540002FF853465A46C01A914110D31146184607
:10055000224600F016F82D1A67EB01084F46224696
:100560000120002100F00DF817EB00094E41201E7C
:10057000A4F10104DFDC484631462A464346BDE883
:10058000F09F202A04DB203A00FA02F10020704795
:100590009140C2F1200320FA03F3194390407047C1
:1005A000202A04DB203A21FA02F00021704721FAC8
:1005B00002F3D040C2F1200291400843194670472F
:1005C000202A06DBCB17203A41FA02F043EAE07317
:1005D00006E041FA02F3D040C2F120029140084304
:1005E000194670470029A8BF7047401C490008BF42
:1005F00020F00100704710B4B0FA80FC00FA0CF053
:1006000050EA010404BF10BC704749B1CCF120048A
:1006100021FA04F411FA0CF118BF01212143084317
:10062000A3EB0C01CB1D4FEA00614FEA102042BF43
:10063000002010BC704700EBC35010440029A4BF39
:1006400010BC7047401C490008BF20F0010010BCDE
:10065000704710B5141E73F1000408DA401C41F114
:10066000000192185B411A4301D120F0010010BD36
:100670002DE9F04D92469B4611B1B1FA81F202E0AC
:10068000B0FA80F220329046FFF77BFF04460F4617
:1006900040EA0A0041EA0B0153465A46084313D088
:1006A000114653EA010019D0C8F140025046FFF745
:1006B00077FF05460E46504659464246FFF761FF12
:1006C000084305D0012004E020463946BDE8F08DFE
:1006D0000020054346EAE0762C4337430A98630539
:1006E000E40AA0EB08000022FD0A44EA47540A305D
:1006F00002D500200146E9E7010510196941DDE94D
:10070000084500196941BDE8F04DA2E72DE9FE4F0B
:1007100081EA030404F0004421F0004100944FF00A
:10072000000B23F0004350EA01045ED052EA0304B8
:100730005BD0C3F30A54C1F30A552C44A4F2F3343A
:100740000194A0FB0254C1F3130141F48011C3F3DF
:10075000130343F4801301FB024400FB034E840A9D
:10076000970A44EA815447EA8357A4FB0768029535
:100770008D0A05FB07854FEA932C04FB0C542705D3
:10078000029D4FEA065847EA1637B5EB08056EEBAF
:10079000070C870E920E47EA811742EA8312A7FBE5
:1007A0000201B6EB0B0164EB00042B0D43EA0C33A2
:1007B0005E1844EB1C50DA465146E7FB0201C5F3D4
:1007C00013044FEA0B3343EA14534FEA0432019CFB
:1007D00043EA0603A4F10C040294009CCDE900B4A2
:1007E000FFF746FF03B0BDE8F08F00200146F9E7B0
:1007F000C1F30A52C1F3130140F2FF3341F48011F7
:100800009A4202DA00200146704740F233439A428E
:10081000A2F2334202DC5242FFF7C2BEFFF7B1BE82
:1008200030B5041E71F1000404DB4FF00044404277
:1008300064EB0101141E73F1000405DB1C464FF04C
:100840000043524263EB0403994208BF904230BD1B
:10085000064C074D06E0E06840F0010394E807000D
:1008600098471034AC42F6D3FFF766FC6C3E0008A4
:100870008C3E000870B58D1810F8014B14F003027F
:1008800001D110F8012B231106D110F8013B03E030
:1008900010F8016B01F8016B521EF9D1ABB110F8E1
:1008A000012B04F00C048A1A0C2C03D0A2EB841246
:1008B0009B1C08E010F8014BA2EB0422F8E712F8A9
:1008C000014B01F8014B5B1EF9D5A942D4D300209E
:1008D00070BD00000EB50121102001F0B9F84720CD
:1008E000ADF8000040F2E730ADF804006946084872
:1008F00001F072FA0121064801F056FA0122114670
:10090000034801F060FA0121014801F050FA0EBDE0
:100910000010004010B500F003F8FFF7DBFF10BD3A
:1009200008B54FF4E06000F057FF1E208DF800007E
:1009300000208DF801008DF8020001208DF80300E1
:10094000684600F011FF08BD08B50121102001F034
:100950009FF84FF40040ADF8000010208DF8030020
:1009600003208DF802006946044800F013FC4FF4A0
:100970000071034800F0A2FC08BD00000010014017
:10098000000C014008B50121082001F081F8102079
:100990008DF803004FF44070ADF8000003208DF88F
:1009A00002006946014800F0F5FB08BD000C01405B
:1009B00010B5002400F0F0F8472000F0BFF800F078
:1009C00045F80446012000F085F800F03FF800EB00
:1009D000042084B2002000F07DF800F0FBF82046EF
:1009E00010BD000038B5002428208DF80300032036
:1009F0008DF802000002ADF800006946124800F0D0
:100A0000C9FB4FF48071104800F05AFC052002F039
:100A1000FFFA4FF400710C4800F047FC08B90124BC
:100A200000E000244FF48071074800F047FC0520E7
:100A300002F0EEFA10208DF803006946024800F03B
:100A4000A9FB204638BD0000000C0140F8B5002489
:100A500048208DF8030003208DF802004FF4007049
:100A6000ADF8000069461A4800F094FB4FF400719D
:100A7000174800F025FC00251EE06006040E4FF428
:100A80008071134800F01CFC052002F0C1FA4FF4FD
:100A900000710F4800F009FC012801D1012600E097
:100AA000002634434FF48071094800F007FC05200C
:100AB00002F0AEFA681C85B2082DDEDB10208DF83E
:100AC00003006946024800F065FB2046F8BD0000BF
:100AD000000C014038B5044610208DF803004FF497
:100AE0004070ADF8000003208DF8020069461248FE
:100AF00000F050FB012C04D161020F4800F0DEFB36
:100B000007E02CB94FF400710B4800F0D9FB00E06E
:100B100038BD4FF48071084800F0D2FB052002F088
:100B200077FA4FF48071044800F0C8FB052002F00A
:100B30006FFA00BFECE70000000C014070B50446FE
:100B4000002521E004F0800028B14FF40071114825
:100B500000F0B6FB04E04FF400710E4800F0AEFB6D
:100B60006006040E4FF480710A4800F0A9FB0520CE
:100B700002F04EFA4FF48071064800F09FFB05200A
:100B800002F046FA681CC5B2082DDBDBFFF72AFF2E
:100B900070BD0000000C014010B54FF400710C480E
:100BA00000F08EFB4FF48071094800F089FB0520AE
:100BB00002F02EFA4FF40071054800F07FFB05208B
:100BC00002F026FA4FF48071014800F077FB10BD67
:100BD000000C014010B54FF400710A4800F06EFBA4
:100BE0004FF48071074800F06BFB052002F010FA0B
:100BF0004FF40071034800F063FB052002F008FA8F
:100C000010BD0000000C014000BFFEE708B5012147
:100C1000082000F03DFF0120ADF8000010208DF805
:100C2000030003208DF802006946024800F0B2FA82
:100C300008BD0000000C014010B5FFF7E7FF0121DF
:100C4000014800F03DFB10BD000C014008B501203B
:100C5000ADF8000048208DF803006946014800F017
:100C600099FA08BD000C014008B50120ADF800005C
:100C700010208DF8030003208DF802006946024819
:100C800000F088FA08BD0000000C014070B5002596
:100C9000002424E000BF0121134800F006FB0028D7
:100CA000F9D0282000F0CAF801210F4800F0FDFA21
:100CB00001280DD100BF01210B4800F0F6FA0128F0
:100CC000F9D0C4F1070101208840C0B2054304E017
:100CD000C4F10701012088408543601CC4B2082C80
:100CE000D8DB284670BD0000000C014010B504465A
:100CF000FFF7BAFF0121244800F0E0FA122000F0CB
:100D000069F80121204800F0DBFA1E2000F096F877
:100D1000FFF79CFF01211C4800F0C7FA80BB00BF11
:100D20000121194800F0C1FA0028F9D000BF0121C3
:100D3000154800F0BAFA0128F9D0FFF7A7FF207094
:100D4000FFF7A4FF6070FFF7A1FFA070FFF79EFF01
:100D5000E070FFF79BFF2071FFF786FF01210A4833
:100D600000F0AEFA207861780844A1780844E17870
:100D700008442179884201D1012010BD0020FCE700
:100D8000FFE70020F9E70000000C01407047000079
:100D900010B56FF0040000F078FF0A4800680A49B7
:100DA000B0FBF1F0094908700846007800EB4001FB
:100DB000C1EBC0104FF6FF7101EAC0000449088082
:100DC00010BD00000000002000127A006C0A002014
:100DD0006E0A00200146114A12884A434FF0E02370
:100DE0005A6100229A611A46126942F001021A61A0
:100DF00000BF4FF0E022106900F001021AB100F4C8
:100E00008032002AF5D04FF0E022126922F0010270
:100E10004FF0E0231A6100229A6170476E0A0020A9
:100E200030B50446002505E04FF47A70FFF7D2FF95
:100E3000681CC5B2A542F7D330BD00000146114A77
:100E400012784A434FF0E0235A6100229A611A4611
:100E5000126942F001021A6100BF4FF0E0221069EE
:100E600000F001021AB100F48032002AF5D04FF0F0
:100E7000E022126922F001024FF0E0231A61002201
:100E80009A6170476C0A002010B54FF4805000F052
:100E900051F820B100F0AAFC0120214908704FF45C
:100EA000005000F047F820B100F0A0FC02201C49DF
:100EB00008704FF4804000F03DF868B118480078A1
:100EC000012802D10520174908701548007802282A
:100ED00002D10320134908704FF4004000F02AF8B3
:100EE00068B10F480078012802D106200D4908702A
:100EF0000B480078022802D104200A4908704FF4F8
:100F0000805000F011F84FF4005000F00DF84FF44D
:100F1000804000F009F84FF4004000F005F810BDE3
:100F20002A000020290000200149086070470000C5
:100F300014040140014600200022074B1B6803EA0D
:100F40000102054B14331B680B4013B10AB1012099
:100F500000E0002070470000000401400021234908
:100F60008279002A3AD00A46126803689A430B46EF
:100F70001A600A1D126803689A430B1D1A600279F1
:100F800011440A6803681A430A60184A0832126852
:100F900003689A43154B08331A601A1D12680368D8
:100FA0009A43124B0C331A604279102A0ED11A1F41
:100FB000126803681A430D4B08331A601A1D126831
:100FC00003681A43094B0C331A600DE00749427954
:100FD00011440A6803681A430A6005E00279114463
:100FE0000A6803689A430A607047000000040140E1
:100FF0000EB500F09BF80121082000F049FD4FF4E8
:101000008050ADF8080048208DF80B0002A9464832
:1010100000F0C0F80121084600F03AFD0C21012043
:1010200000F098F84FF48050009000208DF80400F4
:101030000C208DF8050001208DF806006846FFF7AA
:101040008DFF0121082000F023FD4FF40050ADF882
:10105000080048208DF80B0002A9334800F09AF8E8
:101060000D21012000F076F80121084600F010FD66
:101070004FF40050009000208DF804000C208DF8F3
:10108000050001208DF806006846FFF767FF012183
:10109000082000F0FDFC4FF48040ADF80800482027
:1010A0008DF80B0002A9204800F074F80E210120F1
:1010B00000F050F80121084600F0EAFC4FF48040AF
:1010C000009000208DF804000C208DF80500012010
:1010D0008DF806006846FFF741FF0121082000F067
:1010E000D7FC4FF40040ADF8080048208DF80B0005
:1010F00002A90D4800F04EF80F21012000F02AF857
:101100000121084600F0C4FC4FF40040009000208C
:101110008DF804000C208DF8050001208DF80600E4
:101120006846FFF71BFF0EBD000C014008B54FF4E9
:10113000A06000F051FB28208DF8000001208DF800
:1011400001008DF802008DF80300684600F00CFBEA
:1011500008BD000030B500228B071C0F0F2303FAD7
:1011600004F20B4B8C1053F824309343084C8D1031
:1011700044F8253023468C1053F824308C07240F74
:1011800000FA04F42343024C8D1044F8253030BD9E
:10119000080001402DE9F04102460025002600200C
:1011A00000230024002791F803C00CF00F0591F8EC
:1011B00003C00CF0100CBCF1000F03D091F802C07A
:1011C0004CEA050591F800C0BCF1000F31D014685D
:1011D00000202BE04FF0010C0CFA00F3B1F800C036
:1011E0000CEA03069E4220D183004FF00F0C0CFA4C
:1011F00003F7BC4305FA03FC4CEA040491F803C06E
:10120000BCF1280F06D14FF0010C0CFA00FCC2F81B
:1012100014C00AE091F803C0BCF1480F05D14FF0AB
:10122000010C0CFA00FCC2F810C0401C0828D1D3F5
:101230001460B1F800C0BCF1FF0F34DD5468002029
:101240002EE000F1080C4FF0010808FA0CF3B1F899
:1012500000C00CEA03069E4221D183004FF00F0C20
:101260000CFA03F7BC4305FA03FC4CEA040491F8BA
:1012700003C0BCF1280F05D100F1080C08FA0CF8E6
:10128000C2F8148091F803C0BCF1480F07D100F1F7
:10129000080C4FF0010808FA0CF8C2F81080401C46
:1012A0000828CED35460BDE8F08102460020936840
:1012B0000B400BB1012000E00020704741617047F6
:1012C0000161704700BFFEE770B5024600240025AB
:1012D00000230020958A138B1B0445EA030626F0A1
:1012E0007F4404EA01068E4201D1012000E0002083
:1012F00070BD21B1028842F00102028004E0028840
:101300004FF6FE731A4002807047000000B585B0AA
:101310000121480500F09CFB0121082000F0B8FBEA
:10132000C020ADF8000003208DF802001C208DF8CD
:10133000030069461148FFF72DFF114800F024F81B
:101340000020ADF808004BF6FF70ADF80A00302021
:10135000ADF80C004FF48060ADF80E000001ADF860
:1013600010000848019001210548FFF7C2FF01A9BC
:10137000034800F05BF805B000BD0000000C014020
:1013800000540040801A060010B504460B48844201
:1013900009D10121480500F06BFB00214FF400103A
:1013A00000F066FB08E00121880500F061FB0021E8
:1013B0004FF4800000F05CFB10BD000000540040C2
:1013C00021B1028842F48072028004E002884FF664
:1013D000FF631A400280704721B1028842F4007214
:1013E000028004E002884FF6FF531A4002807047E3
:1013F0000CB50246002000230193009300920B0FCE
:10140000019321F07F41019B1BB1009B143300939A
:1014100003E0090C009B18330093009B1B680B40F2
:101420000BB1012000E000200CBD00002DE9F043CD
:1014300085B004460D460026B1460427DFF8CC806F
:10144000A6884FF6C0700640684600F031FBDDF814
:1014500008802F48B8FBF0F01FFA80F946EA090629
:10146000A68020884FF6FE7108402080002629497A
:10147000286888420CD828684000B8FBF0F087B292
:10148000042F00DA04273E4309F10100208427E0FD
:10149000E8884BF6FF71884206D1286800EB4000CF
:1014A000B8FBF0F087B209E0286800EBC00101EB5F
:1014B0000010B8FBF0F087B247F48047C7F30B0089
:1014C00008B947F0010747F4004006434FF496700F
:1014D00009FB00F04FF47A7190FBF1F0401C20847E
:1014E000A683208840F00100208026884FF6F53042
:1014F0000640A8886989084306432680A889298967
:101500000843208105B0BDE8F083000000127A0096
:1015100040420F00A086010012B141F0010102E03B
:101520004FF6FE7319400182704701827047000038
:1015300070B504460D4600BF4FF400311C48FFF75C
:1015400057FF0028F8D101211948FFF739FF00BFE4
:1015500018491748FFF7B8FE0028F9D00022782173
:101560001348FFF7D9FF00BF13491148FFF7ACFE3E
:101570000028F9D021460E48FFF7D7FF00BF0E49DB
:10158000891C0B48FFF7A0FE0028F8D02946084820
:10159000FFF7CBFF00BF0849891C0548FFF794FE01
:1015A0000028F8D001210248FFF716FF70BD0000A7
:1015B00000540040010003008200070008B501212B
:1015C000102000F065FA4FF4C040ADF80000102084
:1015D0008DF8030003208DF8020069460848FFF7E4
:1015E000D9FD69460648FFF7D5FD4FF48041044810
:1015F000FFF766FE4FF400510148FFF761FE08BD9A
:101600000010014070B5FFF7D3F90546FEF709FF5A
:1016100004460249FEF7A8FD70BD00009A99993F63
:1016200010B5FFF7B9FA4720FFF788FA00240EE05B
:10163000FFF70CFA0A490855032C03D10020FFF7E5
:1016400049FA02E00120FFF745FA601CC4B2032CFE
:10165000EEDBFFF7BFFA052001F0DAFC10BD000059
:101660008C0A002010B52848007803280FD100F01C
:10167000BDF801F0BBFC022324A20421282000F0C5
:101680006FF901F0E3FD00201F4908703AE01E48A1
:10169000007804280FD100F0A9F801F0A7FC02237C
:1016A0001CA20421282000F05BF901F07FFE00203D
:1016B0001549087026E01448007807280FD100F07B
:1016C00095F801F093FC022310A20421282000F0D9
:1016D00047F901F0BBFD00200B49087012E00A48F1
:1016E000007808280ED100F081F801F07FFC022379
:1016F00008A20421282000F033F901F057FE002051
:101700000149087010BD0000290000204F50454ECF
:1017100000000000434C4F534500000000BFFEE7AF
:1017200008B50121042000F0B3F910208DF8030062
:10173000F020ADF8000003208DF80200694608484B
:10174000FFF728FD69460648FFF724FD694604486F
:10175000FFF720FD69460248FFF71CFD08BD0000A9
:10176000000801407047000070B5002100230F22DF
:10177000C47804B3154C246804F4E064C4F5E06450
:10178000210AC1F10403CA40447804FA03F18478C1
:101790001440214309010E4C0678A155047804F049
:1017A0001F050124AC4005786D11AD0005F1E02561
:1017B000C5F8004109E0047804F01F050124AC409D
:1017C000044D0678761145F8264070BD0CED00E01A
:1017D00000E400E080E100E002490143024A1160B8
:1017E000704700000000FA050CED00E010B5002085
:1017F00000F001F810BD70B50646002415E004F1B4
:10180000B001C8B200F083FD002000F080FD102080
:1018100000F07DFD002504E0304600F07FFD681CEF
:10182000C5B2802DF8DB601CC4B2082CE7DB70BDAC
:1018300010B56420FFF7CEFAAE2000F068FD20203E
:1018400000F065FD102000F062FDB02000F05FFDAB
:10185000C82000F05CFD002000F059FD102000F0D1
:1018600056FD402000F053FD812000F050FDFF2088
:1018700000F04DFDA12000F04AFDA62000F047FD3C
:10188000A82000F044FD3F2000F041FDA42000F01E
:101890003EFDD32000F03BFD002000F038FDD520B8
:1018A00000F035FDF02000F032FDD92000F02FFDD2
:1018B000222000F02CFDDA2000F029FD122000F09B
:1018C00026FDDB2000F023FD202000F020FD8D20F0
:1018D00000F01DFD142000F01AFDAF2000F017FDF0
:1018E00010BD70B504460D4605F1B001C8B200F058
:1018F0000EFD102141EA141000F009FD04F00F0163
:1019000041F0010000F003FD70BD00002DE9F04141
:1019100080460E46174600247D0131464046FFF7BB
:10192000E0FF00BF06E00D49485D00F0F7FC6D1CCC
:10193000601CC4B2102CF6DB701CC1B24046FFF72D
:10194000D0FF002406E00549485D00F0E7FC6D1C6F
:10195000601CC4B2102CF6DBBDE8F0812B00002027
:101960002DE9F0470646894617469A464FF000088B
:1019700000240025BAF1010F03D0BAF1020F5ED1A5
:1019800025E020E0785D203800F0FF087E2E04DDA1
:10199000002609F1010000F0FF0949463046FFF733
:1019A000A0FF002409E008EB4801264A02EB4101B0
:1019B000085D00F0B3FC601CC4B2062CF3DBB01D64
:1019C000C6B2681CC5B2785D0028DBD137E032E0D2
:1019D000785D203800F0FF08782E04DD002609F13C
:1019E000010000F0FF0949463046FFF77AFF002466
:1019F00007E004EB0811144A505C00F08FFC601CF7
:101A0000C4B2082CF5DB09F10100C1B23046FFF782
:101A100068FF002408E004EB081108310A4A505C12
:101A200000F07CFC601CC4B2082CF4DB06F108005A
:101A3000C6B2681CC5B2785D0028C9D100BF00BF1E
:101A4000BDE8F087543600087C3800087047000075
:101A500029B1064AD2690243044BDA6104E0034A21
:101A6000D2698243014BDA617047000000100240E6
:101A700029B1064A12690243044B1A6104E0034A81
:101A800012698243014B1A61704700000010024046
:101A900029B1064A92690243044B9A6104E0034A61
:101AA00092698243014B9A61704700000010024026
:101AB00030B500210022002400232D4D6D6805F073
:101AC0000C0121B1042905D0082923D105E0294DB5
:101AD000056022E0274D05601FE0254D6D6805F487
:101AE0007012234D6D6805F48034022505EB924297
:101AF0001CB9214D554305600BE01D4D6D6805F483
:101B000000351DB11C4D5543056002E0194D55438C
:101B1000056002E0174D056000BF00BF144D6D6801
:101B200005F0F0010909154D6B5C0568DD40456065
:101B30000F4D6D6805F4E061090A104D6B5C456856
:101B4000DD4085600A4D6D6805F46051C90A0B4D92
:101B50006B5C4568DD40C560054D6D6805F440412E
:101B6000890B074D6B5CC568B5FBF3F5056130BDAE
:101B70000010024000127A0000093D00140000200D
:101B800024000020704710B500F002F810BD0000DE
:101B90000CB50020019000903348006840F480307C
:101BA0003149086000BF3048006800F40030009000
:101BB0000198401C0190009818B90198B0F5A06FE9
:101BC000F1D12948006800F4003010B101200090E4
:101BD00001E0002000900098012843D123480068CC
:101BE00040F01000214908600846006820F003001A
:101BF00008600846006840F0020008601A48406823
:101C0000194948600846406848600846406840F402
:101C1000806048600846406820F47C1048600846B0
:101C2000406840F4E81048600846006840F0807062
:101C3000086000BF0C48006800F000700028F9D070
:101C40000948406820F0030007494860084640689A
:101C500040F00200486000BF0348406800F00C00FC
:101C60000828F9D10CBD00000010024000200240FD
:101C700010B50446FEF790FF4620FEF75FFF2046B2
:101C8000FEF75CFFFEF7A6FF10BD042808D14FF059
:101C9000E021096941F004014FF0E022116107E001
:101CA0004FF0E021096921F004014FF0E0221161B9
:101CB0007047000030B50146B1F1807F01D30120AB
:101CC00030BD21F07F40401E4FF0E02250615017A0
:101CD0000F22002807DA13071D0E094B00F00F042E
:101CE000241F1D5503E013071C0E064B1C5400BF98
:101CF00000204FF0E0229061072010610020DFE714
:101D000018ED00E000E400E07047000070B5044604
:101D10000C48FFF7CFFF002508E000BF4FF0E020A0
:101D2000006900F480300028F8D06D1CA542F4D37F
:101D30004FF0E020006900F001004FF0E021086161
:101D400070BD00004019010010B51348006840F054
:101D500001001149086008464068104908400E49D2
:101D60004860084600680E4908400B49086008466C
:101D7000006820F4802008600846406820F4FE00D7
:101D800048604FF41F008860FFF7FDFE4FF00060D1
:101D90000449086010BD0000001002400000FFF878
:101DA000FFFFF6FE08ED00E0CA430282704721B152
:101DB000028842F00102028004E002884FF6FE73BE
:101DC0001A40028070471AB183890B43838102E075
:101DD00083898B4383817047002202881D4B984280
:101DE0000ED01D4B98420BD0B0F1804F08D01B4B4A
:101DF000984205D01A4B984202D01A4B984204D10F
:101E00004FF68F731A404B881A43174B984207D0EE
:101E1000164B984204D04FF6FF431A40CB881A4322
:101E200002808B8883850B8803850A4B98420BD0F0
:101E3000094B984208D00E4B984205D00D4B984262
:101E400002D00D4B984201D10B7A03860123838285
:101E500070470000002C01400034014000040040A5
:101E600000080040000C004000100040001400403A
:101E700000400140004401400048014010B540F2DC
:101E80002551054800F07DF920B1034800F034FAEF
:101E90000249087010BD000000380140710A00209E
:101EA00010B540F225519E4800F06BF9002876D01D
:101EB0009B4800F021FA9B490870084600783128B9
:101EC0002FD1FFF793FC1720974908700FE0964930
:101ED0000978902202EB0111C8B293490A780121D6
:101EE000FFF714FD90480078401C8F4908708E4819
:101EF00000781B28EBDB8D48006819308B4908609F
:101F0000084601688AA000F011FA88488CA102688E
:101F10008C4800F01BFA02238A4A05212D20FFF786
:101F20001FFD8048007832282FD1FFF75FFC172073
:101F30007D4908700FE07C490978902202EB01117D
:101F4000C8B279490A780121FFF7E0FC76480078A9
:101F5000401C75490870744800781B28EBDB7348F7
:101F600000683230714908600846016870A000F0CE
:101F7000DDF96E4872A10268724800F0E7F90223A9
:101F8000704A05212D20FFF7EBFC664800783328C6
:101F900036D1FFF72BFC17206349087010E0BDE035
:101FA00061490978902202EB0111C8B25E490A78B2
:101FB0000121FFF7ABFC5C480078401C5A490870CF
:101FC000594800781B28EBDB5848006819385749F6
:101FD000086008460068002801DA002008605348BD
:101FE000016853A000F0A2F9504855A10268554875
:101FF00000F0ACF90223534A05212D20FFF7B0FC75
:1020000048480078342835D1FFF7F0FB17204649BF
:1020100008700FE044490978902202EB0111C8B220
:1020200041490A780121FFF771FC3F480078401CC4
:102030003D4908703C4800781B28EBDB3B480068B2
:1020400032383A49086008460068002801DA002062
:1020500008603648016836A000F068F9334838A1B6
:102060000268384800F072F90223364A05212D2013
:10207000FFF776FC2B480078352802D1072032493B
:10208000087028480078362802D108202E490870A8
:102090002448007861281ED1FFF7A8FB2D20224993
:1020A00008700FE020490978442202EB0111C8B200
:1020B0001D490A780121FFF729FC1B480078401CC4
:1020C00019490870184800783228EBDB4FF480413A
:1020D0001E48FFF7F3F81348007862281ED1FFF777
:1020E00085FB2820104908700FE00F4909789422D9
:1020F00002EB0111C8B20C490A780121FFF706FC76
:1021000009480078401C08490870074800782D28C5
:10211000EBDB4FF480410D48FFF7D2F810BD000013
:1021200000440040700A002028000020780A0020A7
:102130006775616E677A68616F2025640000000032
:1021400025640000BC0A0020290000200010014086
:1021500021B1828942F40052828104E082894DF6E5
:10216000FF731A408281704702460020B1F5007F5C
:1021700000D100BF13880B400BB1012000E000200C
:10218000704770B50246002400230025002040F669
:102190006A16B14200D100BFC1F3421501F01F031E
:1021A000012606FA03F3012D02D19689334006E099
:1021B000022D02D1168A334001E0968A33400C1278
:1021C000012606FA04F41688344013B10CB101203C
:1021D00000E0002070BDF0B5034600240026002575
:1021E000002040F66A17B94200D100BF1846C1F37B
:1021F000421401F01F06012707FA06F5012C01D150
:102200000C3004E0022C01D1103000E014301AB17F
:1022100007682F43076002E00768AF430760F0BD1F
:102220002DE9F04786B005460E460024A24600BFC1
:10223000A1460027B08900B100BF2F462C8A4CF67A
:10224000FF700440F08804432C82AC894EF6F310F2
:102250000440B08831890843718908430443AC8144
:10226000AC8A4FF6FF400440B0890443AC8201A819
:10227000FFF71EFC1F48874202D1DDF810A001E0E5
:10228000DDF80CA0A88900F4004040B10AEBCA00B8
:1022900000EB0A1031684900B0FBF1F807E00AEBE7
:1022A000CA0000EB0A1031688900B0FBF1F8642025
:1022B000B8FBF0F004012009642101FB1089A88912
:1022C00000F4004040B1322000EBC900B0FBF1F057
:1022D00000F00700044308E0322000EB09106421FD
:1022E000B0FBF1F000F00F0004432C8106B0BDE814
:1022F000F08700000038014001468888C0F30800DC
:102300007047C1F308028280704700BFFEE710B536
:10231000044621460020FFF70BF910BD10B5044616
:1023200021464020FFF704F910BD00000FB4054B13
:1023300010B503A9044A029800F0EEF810BC5DF84D
:1023400014FB0000B1300008B80A00200FB4084B9D
:1023500010B504A902AA039800F0DEF8044602A909
:10236000002000F070FC204610BC5DF814FB00005B
:10237000472C000802E008C8121F08C1002AFAD141
:1023800070477047002001E001C1121F002AFBD1F5
:10239000704700002DE9FF5F82B00021DDE90430C5
:1023A000020DDDF840B0034318D044F61050A2F2FD
:1023B000FF3242431514119801281FD0A5EB0B00E2
:1023C000401C5FEA000A4FF000064E4FDFF83891DC
:1023D000B046504615D5CAF1000413E01198012407
:1023E0004AA3012801D16FEA0B010298119AC0E9B2
:1023F0000031C0E9024206B0BDE8F09FCBF1000019
:10240000DFE704460021404A491842EB0450CDE979
:10241000001012E0E00707D032463B4640464946EE
:10242000FEF774F98046894632463B461046194607
:10243000FEF76CF906460F466410002CEAD1DDE980
:102440000401DDE90023BAF1000F06DAFEF75EF9B8
:1024500042464B46FEF75AF905E0FDF76AFF424651
:102460004B46FDF766FF04460E460022284BFEF75A
:10247000D7F903D84FF0FF30014607E00022254B83
:1024800020463146FDF7AEFEFEF7B2F9102409E012
:10249000002C0ADB0A220023FEF742F8039B3032AD
:1024A0001A55641E50EA0102F2D1641C039AC4F169
:1024B00011031444119A012A03D0012208430DD1BB
:1024C0000AE0084304D000204FF0110B119072E78E
:1024D000A3EB0B056D1E0DE05B4504DD4FF0000224
:1024E00005F1010504E003DA4FF00002A5F1010552
:1024F000002AECD002981199C0E90231C0E90045E8
:1025000079E70000000014400000F03F30000000B8
:102510000000F0430000E03F2DE9FF4F95B09B46DF
:102520008946064600250FE2252877D10024274654
:10253000F84A0121059400E0044316F8013F203BCE
:1025400001FA03F01042F7D130782A2811D06FF049
:102550002F033078A0F13002092A16D8059A44F0EA
:10256000020402EB820203EB42021044761C059047
:10257000EFE759F8042B0592002A03DA504244F49D
:102580000054059044F00204761C30782E2816D1B1
:1025900016F8010F44F004042A280DD06FF02F0222
:1025A0003078A0F13003092B09D807EB870302EB41
:1025B0004303C718761CF3E759F8047B761C307880
:1025C0006C280FD006DC4C2817D068280DD06A285C
:1025D00014D104E0742810D07A280FD10DE044F40F
:1025E00000140AE044F4801401E044F440147278CA
:1025F000824202D104F58014761C761C307866285D
:102600000BD013DC582877D009DC002875D045287A
:10261000F6D04628F4D047281AD19DE118E0632867
:1026200035D0642879D0652812D195E1702873D00F
:1026300008DC6728F1D069286FD06E280DD06F288C
:1026400006D1B5E073282CD0752875D0782874D0C1
:102650005A46179990476D1C75E1C4F30250022841
:1026600009D003280DD0D9F8001004280DD00D6032
:1026700009F1040967E1D9F80010EA17C1E900522D
:10268000F6E7D9F800100D80F2E70D70F0E719F8C1
:10269000041B8DF8001000208DF80100EA4601208F
:1026A00003E059F804AB4FF0FF3061074FF0000131
:1026B00002D40DE008F101018846B9420FDA8045E5
:1026C000F8DB1AF808100029F4D108E008F101013C
:1026D00088468142FADB1AF808100029F6D10598DD
:1026E0005B46A0EB080721463846179A00F094FA9B
:1026F000284400EB080507E04DE029E10DE01AF859
:10270000010B5A4617999047B8F10108F7D25B467A
:1027100021463846179A13E142E00A220092C4F398
:1027200002524FF0000A022A08D059F804CB032ABB
:102730004FEAEC710AD00DE029E02AE009F1070127
:1027400021F00702F2E802C1914609E00FFA8CFC81
:102750004FEAEC71042A03D14FFA8CFC4FEAEC717A
:10276000002907DA0A460021DCF1000C61EB0201C6
:102770002D2202E0220504D52B228DF8042001220F
:1027800003E0E20701D02022F7E7904659E00A2152
:1027900002E010220DE010214FF0000A00910BE042
:1027A00010224FF0000A44F004040827009203E0CE
:1027B00008224FF0000A0092C4F30252022A05D008
:1027C00059F804CB0021032A08D009E009F10701D8
:1027D00021F00702F2E802C1914605E01FFA8CFCE5
:1027E000042A01D10CF0FF0C4FF00008220728D575
:1027F000702806D0009B83F0100353EA0A0305D02B
:102800000EE040228DF80420012208E05CEA01027B
:1028100006D030228DF804208DF805000222904663
:10282000009B83F0080353EA0A030AD15CEA010221
:1028300001D1620705D530228DF804204FF0010840
:102840007F1E582804D034A003900EA802900DE0FB
:1028500036A0F9E753466046009AFDF761FE8446CC
:102860000398825C0298401E029002705CEA0100AC
:10287000F0D1029806A9081A00F1200A600702D5D3
:1028800024F4803400E00127574502DDA7EB0A005D
:1028900000E0002000EB0A01009005984144401A36
:1028A0000590E00306D45B462146179A059800F090
:1028B000B3F90544002706E001A85A46C05D179900
:1028C00090476D1C7F1C4745F6DBE0030CD55B464B
:1028D0002146179A059800F09FF9054404E030203E
:1028E0005A46179990476D1C0099481E0090002980
:1028F000F5DC08E0029802995A460078491C0291DA
:10290000179990476D1CBAF10001AAF1010AF1DC98
:1029100065E10000092801003031323334353637A3
:10292000383961626364656600000000303132331B
:1029300034353637383941424344454600000000BB
:1029400000F058F90544761C307800287FF4ECAD8F
:1029500019B02846BDE8F08F620700D4062709F1B8
:10296000070222F0070CFCE80223E14603F00048CE
:102970005FEA080C02D00FF2702C0DE05FEA045CF5
:1029800002D50FF2682C07E05FEAC47C02D00FF298
:10299000602C01E0AFF2700C4FF0FF3823F00043E1
:1029A000CDF850C065280CD006DC452809D0462853
:1029B0001DD047283DD13DE0662818D067287ED13C
:1029C00038E00021112F01DB112000E0781CCDE957
:1029D000000106A90EA8FFF7DDFCDDE90F010E9A44
:1029E00003910021009207F1010A04914DE04FF09C
:1029F00000400097CDE9011006A90EA8FFF7CAFC18
:102A0000DDE90F0203920E9B11990022DDF80CA064
:102A10000093049211B9791C00EB010AB7EB0A008C
:102A200004D4C0F1FF3007F1010A0490AAEB0700BB
:102A3000019044E0012F00DA01270021112F01DD70
:102A4000112000E03846CDE9000106A90EA8FFF7E5
:102A5000A1FCDDE90F010E9A03910021049100927F
:102A6000BA4621070CD40399514500DA8A46BAF1D7
:102A7000010F05DD009AAAF10101515C302908D04F
:102A8000B84202DA10F1040F06DA0121CDE9011093
:102A900015E0AAF10101E9E7002805DC04990144E9
:102AA0000491AAEB000102E0411C514500DD8A4679
:102AB0000499401A401C01904FF0004002902007FA
:102AC00004D40198504501DBCDF8048000208DF836
:102AD0004F0002980DF14F07B0F1004F25D02B2089
:102AE0000E9002984FF0020800280CDA4042029043
:102AF0002D200E9007E00A210298FDF7FBFC3031F3
:102B0000029007F8011DB8F10001A8F10108F2DCFC
:102B100002980028EFD1791E0E980870307800F0E6
:102B2000200040F0450007F8020D12A8C01B00F17C
:102B300007081498007800B1012000EB0A01019801
:102B400001EBE07105984144401A401E0590E003F6
:102B500006D45B462146179A059800F05DF80544B7
:102B60001498007818B15A46179990476D1CE003E5
:102B700024D55B462146179A059800F04DF8054488
:102B80001CE00498002807DBDDE90301884203DD2F
:102B90000098405C179901E0179930205A469047F9
:102BA000049805F10105401C04900198401E019015
:102BB00004D12E205A46179990476D1CBAF1000196
:102BC000AAF1010ADDDC05E017F8010B5A46179956
:102BD00090476D1CB8F10001A8F10108F4DC5B46D8
:102BE0002146179A0598ABE62D0000002B00000047
:102BF000200000002DE9F041044600251E4617463E
:102C0000880404D405E039462020B0476D1C641EBA
:102C1000F9D52846BDE8F0812DE9F04104460025AC
:102C20001E469046C80301D5302700E020278804BF
:102C300004D505E041463846B0476D1C641EF9D501
:102C40002846BDE8F0810A68531C0B60107070477D
:102C50002DE9F0418AB04FF4FA60FFF757F8FEF71C
:102C6000C5FDFEF7DDFCC3480078C3490860C148D4
:102C70004078096800EB0120BF49086008460068F9
:102C8000FDF7CFFB8046FDF7FBFB06464FF03332E6
:102C9000BA4BFDF74EFB0446FDF705FCB84908604A
:102CA000B848FEF723F801280DD1B648C3788278DA
:102CB000B5A105A8FFF74AFBB24843780278B2A154
:102CC00003A8FFF743FBB2480078052831D1FEF78F
:102CD0008DFD1720AF4908700FE0AE4909789022AA
:102CE00002EB0111C8B2AB490A780121FEF70EFED2
:102CF000A8480078401CA7490870A64800781B28FF
:102D0000EBDBA54800681930A34908600846A3A179
:102D10000268A348FFF71AFB0223A14A05212D20D0
:102D2000FEF71EFE4FF41670FEF754F80020984987
:102D3000087097480078062837D1FEF757FD17200E
:102D4000944908700FE093490978902202EB011131
:102D5000C8B290490A780121FEF7D8FD8D48007865
:102D6000401C8C4908708B4800781B28EBDB8A4894
:102D7000006819388849086008460068002801DAA8
:102D800000200860844885A102688548FFF7DEFAC4
:102D90000223834A05212D20FEF7E2FD4FF4167031
:102DA000FEF718F800207A4908707B480068FDF7A4
:102DB0002FFB0446FEF726FC05462146FDF790FB57
:102DC00023D87848007801281BD1FEF70FFD122088
:102DD000704908700FE06F490978F42202EB011185
:102DE000C8B26C490A780421FEF790FD6948007862
:102DF000401C68490870674800781728EBDB00F032
:102E000025FA00206749087021E066480078D8B9A3
:102E1000FEF7ECFC0D205F4908700FE05D49097872
:102E20004C2202EB0111C8B25A490A780421FEF77C
:102E30006DFD58480078401C564908705548007888
:102E40001228EBDB00F0B2FA012056490870FEF7B9
:102E5000CDFCFEF7D7FB0646FDF712FB04462246E3
:102E60000B4651A0FFF762FAFEF7CCFB0646FDF7D2
:102E700007FB044622460B464FA107A8FFF766FA58
:102E80000A20444908700FE042490978602202EBA9
:102E90000111C8B23F490A780121FEF737FD3D48CC
:102EA0000078401C3B4908703A4800780C28EBDB5E
:102EB000022307AA01212D20FEF752FD022340A282
:102EC00001215620FEF74CFD0620324908700FE024
:102ED00030490978A02202EB0111C8B22D490A78C5
:102EE0000421FEF713FD2B480078401C2949087087
:102EF000284800780828EBDB022305AA04212D20AE
:102F0000FEF72EFD0C2204215620FEF7FFFC0820C0
:102F1000204908700FE01F490978802202EB011157
:102F2000C8B21C490A780621FEF7F0FC194800785F
:102F3000401C18490870174800780A28EBDB022368
:102F400003AA06212D20FEF70BFD02231DA2062158
:102F50005620FEF705FD1C4903C9CDE900011B48B9
:102F60000CC81BA0FFF7E2F90120FDF759FF0AB0DA
:102F7000BDE8F0818C0A0020940A00203333F33F2F
:102F8000880A0020B00A002025642E256400000075
:102F90002900002028000020780A00202564000075
:102FA000BC0A00209C0A0020B9E2C7BFA3BA25666C
:102FB000206C780D0A00000025312E3266000000DA
:102FC0006C78000025000000A00A0020A80A00205C
:102FD000CEC2B6C8A3BA252E3266202020CAAAB611
:102FE000C8A3BA20252E32660A00000010B54FF49F
:102FF00000410648FEF764F90A20FDF7EBFE4FF4A6
:1030000000410248FEF75AF910BD000000100140CF
:1030100047E000BF00BF00BF00BF00BF00BF00BF50
:1030200000BF00BF00BF00BF00BF00BF00BF00BFA8
:1030300000BF00BF00BF00BF00BF00BF00BF00BF98
:1030400000BF00BF00BF00BF00BF00BF00BF00BF88
:1030500000BF00BF00BF00BF00BF00BF00BF00BF78
:1030600000BF00BF00BF00BF00BF00BF00BF00BF68
:1030700000BF00BF00BF00BF00BF00BF00BF00BF58
:1030800000BF00BF00BF00BF00BF00BF00BF00BF48
:1030900000BF00BF00BF00BF00BF00BF00BF00BF38
:1030A00000BF011EA0F1010290B2B2D17047000032
:1030B00070B504460D46E1B20548FFF722F900BF9E
:1030C00080210348FFF750F80028F9D0204670BD52
:1030D00000380140FEF772FA4FF4E13000F068FA70
:1030E0004FF4165000F012FAFDF714FCFDF750FEF5
:1030F000FEF70CF9FDF7A0FDFEF79AFBFDF742FC89
:103100000120FEF7B5FDFEF70BFBFDF771FFFDF7A4
:103110001BFCB420FDF75EFEFF20FEF76CFB1B20BE
:103120004749087018E0464909780801FDF77EF91B
:1031300007460022434BFDF755F80546FDF787F992
:10314000C4B23F48027804212046FEF7DFFB3C482A
:103150000078401C3A490870394800782028E2DBA2
:103160000220FDF75DFE0020FEF745FB0120FEF783
:103170007FFD1020FEF77CFDB420FEF7C7FDFFF7B2
:1031800035FF00202E4908700FE02D4909781222E2
:1031900002EB0111C8B22A490A780021FEF7B6FBFA
:1031A00027480078401C26490870254800780628E2
:1031B000EBDB4FF44870FEF7A9FDFEF717FB20206C
:1031C0001F4908700FE01E490978002202EB011127
:1031D000C8B21B490A780221FEF798FB184800780C
:1031E000401C17490870164800782428EBDB24207F
:1031F000134908700FE012490978C02202EB01114F
:10320000C8B20F490A780521FEF780FB0C48007808
:10321000401C0B4908700A4800782828EBDB0EE0B8
:1032200009480078012802D0022806D102E0FFF701
:103230000FFD03E0FEF716FA00E000BF00BFEFE766
:1032400028000020006079C02A00002070B500240A
:10325000A6E00025A0E010215348FEF72FF820211A
:103260005148FEF72BF840214F48FEF727F8802100
:103270004D48FEF725F840F2DC50FDF7DFFD102148
:103280004948FEF71BF820214748FEF717F8402170
:103290004548FEF715F880214348FEF711F840F243
:1032A000DC50FDF7CBFD10213F48FEF707F8202149
:1032B0003D48FEF703F840213B48FEF701F8802126
:1032C0003948FDF7FBFF40F2DC50FDF7B7FD102158
:1032D0003548FDF7F3FF20213348FDF7F1FF40218A
:1032E0003148FDF7EDFF80212F48FDF7E7FF40F261
:1032F000DC50FDF7A3FD10212B48FDF7DFFF202157
:103300002948FDF7DDFF40212748FDF7D7FF802141
:103310002548FDF7D3FF40F2DC50FDF78FFD10216B
:103320002148FDF7CDFF20211F48FDF7C9FF4021AF
:103330001D48FDF7C3FF80211B48FDF7BFFF40F28A
:10334000DC50FDF77BFD10211748FDF7B9FF202168
:103350001548FDF7B3FF40211348FDF7AFFF80216B
:103360001148FDF7ABFF40F2DC50FDF767FD10217F
:103370000D48FDF7A3FF20210B48FDF79FFF4021DB
:103380000948FDF79BFF80210748FDF797FF40F2B2
:10339000DC50FDF753FD6D1C082DFFF45CAF641C81
:1033A000402CFFF456AF70BD0008014070B50024FA
:1033B000A6E00025A0E010215348FDF781FF202161
:1033C0005148FDF77BFF40214F48FDF777FF8021F3
:1033D0004D48FDF773FF40F2DC50FDF72FFD102143
:1033E0004948FDF76DFF20214748FDF769FF40215F
:1033F0004548FDF763FF80214348FDF75FFF40F23A
:10340000DC50FDF71BFD10213F48FDF757FF202141
:103410003D48FDF755FF40213B48FDF74FFF802118
:103420003948FDF74BFF40F2DC50FDF707FD102156
:103430003548FDF743FF20213348FDF741FF402188
:103440003148FDF73DFF80212F48FDF737FF40F25F
:10345000DC50FDF7F3FC10212B48FDF72FFF202156
:103460002948FDF72BFF40212748FDF729FF802140
:103470002548FDF723FF40F2DC50FDF7DFFC10216B
:103480002148FDF71BFF20211F48FDF717FF4021B2
:103490001D48FDF715FF80211B48FDF711FF40F285
:1034A000DC50FDF7CBFC10211748FDF707FF20216A
:1034B0001548FDF703FF40211348FDF7FFFE80216B
:1034C0001148FDF7FDFE40F2DC50FDF7B7FC10217E
:1034D0000D48FDF7F3FE20210B48FDF7EFFE4021DC
:1034E0000948FDF7EBFE80210748FDF7E7FE40F2B3
:1034F000DC50FDF7A3FC6D1C082DFFF45CAF641CD1
:10350000402CFFF456AF70BD0008014010B586B0E6
:10351000044601210420FEF7BBFA01214804FEF70E
:1035200097FA0420ADF8140003208DF81600182037
:103530008DF8170005A91C48FDF72CFE0820ADF8F2
:10354000140004208DF8170005A91748FDF722FE86
:1035500026208DF8000003208DF801008DF8020070
:1035600001208DF803006846FEF7FEF80194002064
:10357000ADF80800ADF80A00ADF80C00ADF8100089
:103580000C20ADF80E0001A90848FEF749FE012203
:1035900040F225510548FEF71EFE01210348FEF7C3
:1035A000D7FD06B010BD00000008014000440040F7
:1035B00010B586B00446012144F20400FEF768FA13
:1035C0004FF40070ADF8140003208DF81600182099
:1035D0008DF8170005A91D48FDF7DCFD4FF480604C
:1035E000ADF8140004208DF8170005A91748FDF761
:1035F000D1FD25208DF8000002208DF80100032068
:103600008DF8020001208DF803006846FEF7ACF843
:1036100001940020ADF80800ADF80A00ADF80C00E8
:10362000ADF810000C20ADF80E0001A90848FEF717
:10363000F7FD012240F225510548FEF7CCFD01219E
:103640000348FEF785FD06B010BD000000080140EC
:10365000003801400000000000000000002F0000C2
:1036600000000700070000147F147F1400242A7F45
:103670002A120062640813230036495522500000C4
:103680000503000000001C224100000041221C0034
:103690000014083E08140008083E0808000000A0B6
:1036A00060000008080808080000606000000020B2
:1036B00010080402003E5149453E0000427F400090
:1036C000004261514946002141454B310018141216
:1036D0007F10002745454539003C4A4949300001E3
:1036E0007109050300364949493600064949291E32
:1036F0000000363600000000563600000008142294
:103700004100001414141414000041221408000293
:103710000151090600324959513E007C1211127CB8
:10372000007F49494936003E41414122007F4141E5
:10373000221C007F49494941007F09090901003ED7
:103740004149497A007F0808087F0000417F410015
:10375000002040413F01007F08142241007F40408B
:103760004040007F020C027F007F0408107F003E73
:103770004141413E007F09090906003E4151215E59
:10378000007F091929460046494949310001017F56
:103790000101003F4040403F001F2040201F003FEC
:1037A0004038403F0063140814630007087008079E
:1037B00000615149454300007F41410000552A55B1
:1037C0002A55000041417F0000040201020400402C
:1037D000404040400000010204000020545454784E
:1037E000007F48444438003844444420003844446E
:1037F000487F00385454541800087E09010200180C
:10380000A4A4A47C007F080404780000447D400048
:10381000004080847D00007F102844000000417F2C
:103820004000007C04180478007C08040478003808
:103830004444443800FC242424180018242418FC90
:10384000007C0804040800485454542000043F44F9
:103850004020003C4040207C001C2040201C003CBC
:103860004030403C004428102844001CA0A0A07C0C
:10387000004464544C441414141414140000000044
:10388000000000000000000000000000000000F840
:1038900000000000000000333000000000100C06A3
:1038A000100C0600000000000000000040C078403E
:1038B000C0784000043F04043F040400007088FC0A
:1038C00008300000001820FF211E0000F008F00062
:1038D000E018000000211C031E211E0000F00888D3
:1038E000700000001E2123241927211010160E003D
:1038F000000000000000000000000000000000E0E8
:1039000018040200000000071820400000020418FC
:10391000E00000000040201807000000404080F058
:10392000804040000202010F01020200000000F08E
:10393000000000000101011F010101000000000062
:103940000000000080B070000000000000000000D7
:103950000000000000010101010101010000000060
:1039600000000000003030000000000000000000F7
:1039700080601804006018060100000000E01008D4
:103980000810E000000F102020100F00001010F8A9
:10399000000000000020203F2020000000700808E8
:1039A0000888700000302824222130000030088868
:1039B000884830000018202020110E000000C02090
:1039C00010F8000000070424243F240000F80888B1
:1039D000880808000019212020110E0000E010883E
:1039E00088180000000F112020110E000038080870
:1039F000C83808000000003F000000000070880880
:103A000008887000001C222121221C0000E0100800
:103A10000810E0000000312222110F00000000C059
:103A2000C0000000000000303000000000000080F6
:103A300000000000000080600000000000008040E6
:103A400020100800000102040810200040404040FF
:103A50004040400004040404040404000008102052
:103A60004080000000201008040201000070480897
:103A70000808F0000000003036010000C030C828FF
:103A8000E810E0000718272423140B000000C038BA
:103A9000E0000000203C23020227382008F8888834
:103AA00088700000203F202020110E00C030080840
:103AB00008083800071820202010080008F8080817
:103AC0000810E000203F202020100F0008F8888810
:103AD000E8081000203F20202320180008F88888DC
:103AE000E8081000203F200003000000C030080854
:103AF0000838000007182020221E020008F80800DD
:103B00000008F808203F210101213F20000808F8A3
:103B1000080800000020203F2020000000000808C6
:103B2000F8080800C08080807F00000008F888C086
:103B300028180800203F20012638200008F8080037
:103B400000000000203F20202020300008F8F8006E
:103B5000F8F80800203F003F003F200008F830C080
:103B60000008F808203F200007183F00E010080870
:103B70000810E0000F10202020100F0008F808089F
:103B80000808F000203F210101010000E0100808B2
:103B90000810E0000F18242438504F0008F88888D7
:103BA00088887000203F2000030C302000708808B7
:103BB000080838000038202121221C00180808F8C5
:103BC000080818000000203F2000000008F8080046
:103BD0000008F808001F202020201F000878880017
:103BE00000C83808000007380E010000F80800F887
:103BF0000008F800033C0700073C03000818688031
:103C00008068180820302C03032C30200838C800A6
:103C1000C83808000000203F2000000010080808F5
:103C2000C83808002038262120201800000000FE97
:103C3000020202000000007F40404000000C30C043
:103C400000000000000000010638C000000202026F
:103C5000FE000000004040407F0000000000040221
:103C6000020204000000000000000000000000004C
:103C7000000000008080808080808080000202043C
:103C80000000000000000000000000000000808034
:103C9000808000000019242222223F2008F80080A2
:103CA00080000000003F112020110E000000008065
:103CB00080800000000E11202020110000000080F4
:103CC0008088F800000E112020103F200000808026
:103CD00080800000001F222222221300008080F03A
:103CE000888888180020203F202000000000808065
:103CF00080808000006B94949493600008F80080AA
:103D000080800000203F210000203F200080989804
:103D1000000000000020203F202000000000008064
:103D20009898000000C08080807F000008F80000A4
:103D300080808000203F24022D302000000808F8F9
:103D4000000000000020203F2020000080808080B4
:103D500080808000203F20003F20003F8080008046
:103D600080800000203F210000203F200000808054
:103D700080800000001F202020201F008080008005
:103D80008000000080FFA12020110E0000000080B4
:103D900080808000000E112020A0FF8080808000A5
:103DA0008080800020203F212000010000008080D2
:103DB000808080000033242424241900008080E0C7
:103DC000808000000000001F202000008080000094
:103DD00000808000001F202020103F208080800075
:103DE0000080808000010E30080601008080008085
:103DF000008080800F300C030C300F0000808000AA
:103E0000808080000020312E0E31200080808000D4
:103E10000080808080818E70180601000080808084
:103E2000808080000021302C222130000000000022
:103E3000807C020200000000003F404000000000C3
:103E4000FF00000000000000FF0000000002027CF4
:103E5000800000000040403F00000000000601011B
:103E60000202040400000000000000008C3E000874
:103E700000000020BC0A000074080008EC420008A2
:103E8000BC0A00200C04000084230008500600A295
:103E90004A040001600901020304060708090C61D5
:103EA000101005020406081F300F109453321E3202
:103EB0005210007E4242427E3243FF490122FF0DF2
:103EC000101008CC4A49484ACC18007F8888848260
:103ED000E01E4009121252927F00007E1020101046
:103EE0000CC4544C64D54644444C54C4140C3F2078
:103EF0000A40446255495543404041300E100C443D
:103F000024140405C6040414244420133F01013082
:103F100007FF010111211F6F200C22322AA6A26285
:103F200021110981017E10294222130B42827E0257
:103F3000020A12234600002030AC63300088C8A873
:103F4000998E88A8C8880022672212128040300FFC
:103F500049200D404071001060028C0000FE92016B
:103F600012FEB0100604047E0140CC127E02100442
:103F7000427E40902009FC242424FC25262408406D
:103F800012040040308F80844C55252525554C80E7
:103F9000808040413F7140000B204448507F4040AA
:103FA0007F5048444020174040424458C0407F4022
:103FB000C0504846404000808040201807E712402B
:103FC000011422780002E222223E00809E9292F2A8
:103FD00092929E8000004382423E40474444447F88
:103FE000444454E7220006170C12120C0001053F4E
:103FF00060200DF80122202222A2FA22222202E1D0
:104000001008FF0008040211201C174080C710058B
:1040100040402020E91243F4132020C0112243FE27
:10402000420142FE8213F0100122FF0532F092138A
:104030000F040122FF0502420FA0340400FE121CEF
:10404000210410191E000080601F0404FC47240C8A
:104050001427344C44440080828282FE04410615B9
:104060004045FC31C90122A0051EA031EE100AFE18
:104070000042A29E82A2C2BE80400A6F080828CFDA
:1040800000002FC80825405409A0A2A222FE22AA9F
:104090003240240B10130A4B20170C133880811C5C
:1040A0000D8060F80704E4A4A4BFA4A4E475031978
:1040B000C41AFF3C224A01367F50093CE02981198D
:1040C0002D1E456103140444447CB0295E21122155
:1040D0001016FCC51344C40D4640021501040F2000
:1040E000103C131014B840300E014080403FC021F6
:1040F000E25409888C8A89888888F85152FF5E3D8D
:104100000004011E60240D1010D0FF9014E4AFA431
:10411000A4A4AF00170403221C0A894B2A1A0E1A02
:104120002A4B8860032310900131401C04111610A3
:10413000D103100460203F8D200700030C102040A5
:10414000731D9F031DA103199F1F2322C003220279
:1041500001300442827F08035F02028024078070DE
:1041600000FF20101326FC1319805C051807083087
:104170001D03092240500400E282015D3003311921
:104180004101211F2200771A10A5131413FE0C11F0
:104190001F008181414121110D030D1121414181F8
:1041A00081A003015EA03D3C038690002C050444E1
:1041B000827F880561600D1F8003680F0305091168
:1041C000FF118905C300E000F0004400083A4428CC
:1041D000FF11AA440001500B83013844829292746B
:1041E00001831110067C44C7017D01910551849221
:1041F00001027DF806023B017E81419149F20101F5
:1042000081AF35F6200400006D012004000060013C
:10421000711501620122DB0101150722DA01200478
:104220000000D80120040000C0010115071DD306BD
:104230001D15070532AF2206010118071004E666B6
:10424000200762861572861C228601100A808086ED
:1042500086068686C0C00C00061C0606D030764D49
:104260002107092F501C05601C00FE0209880F0061
:10427000C41820029E63B20E00FF8181FFD07C0B28
:10428000FF0023EAAABFAAEA033F5A060925A96547
:1042900032051B3A58040E0C084039B029B41005F9
:1042A00081808081021572B117F4060101090C0E9C
:1042B000DF0214C001700A00001E21404050215E40
:1042C000080928324005FFFFC1C10401232DD01584
:1042D00080FCF3EFF3FC80FF80EEEEEEF5FBFF9C3D
:0C42E000BEB6B6883A0A410FEB000000A1
:0400000508000131BD
:00000001FF
