:020000040800F2
:10000000D815002045010008A5290008731900082B
:100010005D290008690D00083D3A00080000000055
:10002000000000000000000000000000353500085E
:10003000950F000800000000FD3300089D36000801
:100040005F0100085F0100085F0100085F01000810
:100050005F0100085F0100085F0100085F01000800
:100060005F0100085F0100085F0100085F010008F0
:100070005F0100085F0100085F0100085F010008E0
:100080005F0100085F0100085F0100085F010008D0
:100090005F0100085F0100085F0100085F010008C0
:1000A0005F0100085F0100085F0100085F010008B0
:1000B0005F0100085F0100085F0100085F010008A0
:1000C0005F0100085F0100085F0100085F01000890
:1000D0005F010008113800082D3800085F01000892
:1000E0002D1500085F0100085F0100085F0100088E
:1000F0005F0100085F0100085F0100085F01000860
:100100005F0100085F0100085F0100085F0100084F
:100110005F0100085F0100085F0100085F0100083F
:100120005F0100085F0100085F0100085F0100082F
:10013000DFF80CD000F08CFC00480047A54D00080B
:10014000D81500200648804706480047FEE7FEE72E
:10015000FEE7FEE7FEE7FEE7FEE7FEE7FEE7FEE777
:10016000DD36000831010008A0F14101192900D84D
:100170002030704740EA01039B0703D009E008C91B
:10018000121F08C0042AFAD203E011F8013B00F85C
:10019000013B521EF9D27047D2B201E000F8012BA8
:1001A000491EFBD270470022F6E710B513460A46F7
:1001B00004461946FFF7F0FF204610BD30B505464E
:1001C0002A460B4612F8010B13F8014B08B1A04266
:1001D000F8D01CB1002802D06D1CF1E7284630BDD4
:1001E000CAB2401E10F8011F8A4202D00029F9D17C
:1001F00000207047421C10F8011B0029FBD1801A17
:10020000704710B5044600E0401C0378002BFBD17A
:1002100000E0401C521E04D311F8013B0370002B78
:10022000F7D100210170204610BD30B505460020F1
:10023000034600E05B1C934205D2EC5CC85C201ACC
:1002400001D1002CF6D130BD70B5064603F030FD6B
:10025000046805460A220021304600F08FFA2C601F
:1002600070BD80EA010210B502F00043400022D0C8
:100270004A001FD0010E01EB1261C0F35600C2F319
:10028000560240F4000042F40002A0FB02200004E9
:100290007F39140400D0401C50EA124001D44000C1
:1002A000491EC2B20C0604EBD010401C4008802A44
:1002B00002D003E0002010BD20F00100002900DA88
:1002C0000020184310BD30B480EA010202F000455E
:1002D00030F0004221F0004013D090B1C30DD40D96
:1002E000C2F31601C0F31600E41A41F4000140F411
:1002F00000027D34914201D3641C00E04900002CCF
:1003000002DA30BC002070474FF400000023914215
:1003100001D3891A034340084FEA4101F7D151B193
:10032000914202D14FF0004105E002D24FF00101AD
:1003300001E06FF0010103EBC450284430BC00F031
:1003400055BA2DE9FE4F804681EA0300C00F0C46E6
:10035000009021F0004123F00045B8EB0200A941D4
:1003600005D24046214690461C460B46024623F0E5
:100370000040104347D0270DC7F30A00C3F30A51CA
:100380000290401A019040286BDAC3F3130040F446
:10039000801B0098924620B10023D2EB030A63EB46
:1003A0000B0B01985946C0F14002504600F0B5F9D8
:1003B00006460D4650465946019A00F0CDF910EB1D
:1003C00008006141002487EA115284EAE7731A4366
:1003D00040D0009A62B3019A012A4FEA075215DC15
:1003E000001B61EB02014FF0004202EA0752CDE927
:1003F0000042001C41F5801132462B4600F03CFAC9
:1004000003B0BDE8F08F40462146F9E7001B61EBE1
:100410000201001C41F5801300185B412018A2F571
:10042000001747EB030140EAD570B6196D4111E0A2
:100430006D084FEA360645EAC0754FEA0752001BC1
:1004400061EB0201001C41F5801149084FEA3000C0
:100450000019514132462B4603B0BDE8F04F00F081
:10046000FCB90098012240000023D0EB020263EBAC
:10047000E073009821464FEAE074B8EB000061EBAE
:100480000401E9E783F000435BE781F0004158E7AE
:100490002DE9FE4F81EA030404F0004421F00041FD
:1004A00000944FF0000B23F0004350EA01045ED0AB
:1004B00052EA03045BD0C3F30A54C1F30A552C4437
:1004C000A4F2F3340194A0FB0254C1F3130141F4EC
:1004D0008011C3F3130343F4801301FB024400FBB8
:1004E000034E840A970A44EA815447EA8357A4FBDF
:1004F000076802958D0A05FB07854FEA932C04FBDC
:100500000C542705029D4FEA065847EA1637B5EB0B
:1005100008056EEB070C870E920E47EA811742EA38
:100520008312A7FB0201B6EB0B0164EB00042B0D59
:1005300043EA0C335E1844EB1C50DA465146E7FBA5
:100540000201C5F313044FEA0B3343EA14534FEA95
:100550000432019C43EA0603A4F10C040294009CBB
:10056000CDE900B400F088F903B0BDE8F08F0020B9
:100570000146F9E7C10F80EAE0700844CA079623F4
:10058000002100F03CB996230022114600F037B953
:100590000EB5C10F80EAE0700844CA07002140F29E
:1005A00033438DE80E000A460B4600F065F903B0B0
:1005B00000BD70B5C1F30A5201F000450024C1F33B
:1005C000130140F2FF3341F480119A4201DA002016
:1005D00070BD40F233439A42A2F2334203DC5242EE
:1005E00000F0AAF800E090402C43F1D0404270BDEA
:1005F000C1F30A5210B5C1F3130140F2FF3341F4C5
:1006000080119A4201DA002010BD40F233439A4231
:10061000A2F2334203DC524200F08EF810BD90404B
:1006200010BD00F0004230F000400AD0C10D01F5CD
:100630006071C0F3160042EA0151C208400711433D
:10064000704700200146704730B5041E71F1000468
:1006500004DB4FF00044404264EB0101141E73F1CF
:10066000000405DB1C464FF00043524263EB0403D9
:10067000994208BF904230BD002801DBC0F1004024
:10068000002901DBC1F100418842704730B50B46BB
:10069000014600202022012409E021FA02F59D42B2
:1006A00005D303FA02F5491B04FA02F52844151E86
:1006B000A2F10102F1DC30BD2DE9F05F054600201A
:1006C00092469B4688460646814640241BE02846C3
:1006D00041464746224600F02FF853465A46C01A74
:1006E000914110D311461846224600F016F82D1AF3
:1006F00067EB01084F4622460120002100F00DF86B
:1007000017EB00094E41201EA4F10104DFDC48462E
:1007100031462A464346BDE8F09F202A04DB203AB2
:1007200000FA02F1002070479140C2F1200320FA44
:1007300003F3194390407047202A04DB203A21FA42
:1007400002F00021704721FA02F3D040C2F12002EA
:100750009140084319467047202A06DBCB17203A00
:1007600041FA02F043EAE07306E041FA02F3D040B6
:10077000C2F1200291400843194670472DE9F04725
:1007800091460F4680460446002614F8015B2DB1C1
:1007900000F070F90068405DC007F6D12B2D02D043
:1007A0002D2D18D0641E4A463946204600F066F9C1
:1007B00027B13968A14201D1C7F8008071054FF017
:1007C00002040BD54042002803DD03F071FA0460F7
:1007D000A007BDE8F08746F48066E4E70028F8DA71
:1007E00003F066FA04606FF00040F2E70029A8BF4A
:1007F0007047401C490008BF20F00100704710B44A
:10080000B0FA80FC00FA0CF050EA010404BF10BCFE
:10081000704749B1CCF1200421FA04F411FA0CF12B
:1008200018BF012121430843A3EB0C01CB1D4FEA64
:1008300000614FEA102042BF002010BC704700EB5F
:10084000C35010440029A4BF10BC7047401C49008D
:1008500008BF20F0010010BC704710B5141E73F1E2
:10086000000408DA401C41F1000192185B411A4370
:1008700001D120F0010010BD2DE9F04D92469B46BC
:1008800011B1B1FA81F202E0B0FA80F22032904662
:10089000FFF743FF04460F4640EA0A0041EA0B0116
:1008A00053465A46084313D0114653EA010019D063
:1008B000C8F140025046FFF73FFF05460E4650463E
:1008C00059464246FFF729FF084305D0012004E0BE
:1008D00020463946BDE8F08D0020054346EAE07623
:1008E0002C4337430A986305E40AA0EB0800002272
:1008F000FD0A44EA47540A3002D500200146E9E7E0
:10090000010510196941DDE9084500196941BDE893
:10091000F04DA2E72DE9F04D81EA030404F0004B0D
:1009200021F0004514464FF0000A23F0004150EA40
:10093000050220D054EA01021DD0C5F30A57024631
:10094000C5F31303C1F31300C1F30A5640F4801535
:1009500043F48013A7EB0608101BD64608F2FD38B7
:1009600073EB050002D308F1010801E092185B4126
:10097000B8F1000F03DA00200146BDE8F08D002039
:100980004FF48011064684460EE0171B73EB0507F3
:1009900005D3121B63EB050306434CEA010C49081F
:1009A0004FEA300092185B4150EA0107EDD152EA5C
:1009B000030012D082EA040083EA0501084305D04F
:1009C000101BAB4106D20122002306E000224FF0AB
:1009D000004302E06FF0010253101AEB06004CEBEB
:1009E000085110EB0A0041EB0B01BDE8F04DFFF799
:1009F00034BF70B521F0004303430CD0C1F30A5556
:100A00000024D5EB040564EB0403D617AD1AB341FB
:100A100002DB0020014670BD201841EB025170BD81
:100A2000C1F30A52C1F3130140F2FF3341F48011C4
:100A30009A4202DA00200146704740F233439A425C
:100A4000A2F2334202DC5242FFF776BEFFF765BEE8
:100A5000064C074D06E0E06840F0010394E807000B
:100A600098471034AC42F6D3FFF766FBF86E0008E7
:100A7000186F000800487047EC6D00082DE9F05F22
:100A800082460078002715468B460AF10104B946D4
:100A9000302801D09DB113E014F8010B012778280C
:100AA00003D0582801D045B10AE00DB1102D07D16F
:100AB0000027102514F8010B02E0082500E00A25A4
:100AC0000026B0460EE005FB080005FB06F10127F5
:100AD00001EB10461FFA80F8B6F5803F00D3B94607
:100AE00014F8010B294600F069F80028EBDABBF195
:100AF000000F05D00FB1641E00E05446CBF8004053
:100B0000B9F1000F06D003F0D3F802210160C81E2E
:100B1000BDE8F09F48EA0640FAE72DE9F04D0023D2
:100B20001A461B1A8A4103DB00200146BDE8F08DFE
:100B3000C1F30A52C1F3130141F480154FF0000BC9
:100B4000D10702D100186D41521E0027044640F221
:100B5000FF11384601EB620A3E46804602460020FD
:100B60004FF48011FFF7E8FDC2197141BB1846EB45
:100B70000100B4EB030C75EB000C04D3E41A65EB35
:100B8000000517460E46241908F101006D41804604
:100B90003428E3DDF91946EB0600091BA84103D20E
:100BA0004FF0FF32134601E0002213461BEB070013
:100BB00046EB0A51BDE8F04DFFF74FBE3A2800D290
:100BC000303820F02002412A01D3A2F137008842B8
:100BD00001D34FF0FF30704770B58D1810F8014BFE
:100BE00014F0030201D110F8012B231106D110F8E3
:100BF000013B03E010F8016B01F8016B521EF9D1C3
:100C0000ABB110F8012B04F00C048A1A0C2C03D0A1
:100C1000A2EB84129B1C08E010F8014BA2EB04220B
:100C2000F8E712F8014B01F8014B5B1EF9D5A94218
:100C3000D4D3002070BD00000EB50121102002F0B9
:100C4000DFFB4720ADF8000040F2E730ADF80400CC
:100C50006946084802F08AFD0121064802F06EFD4F
:100C600001221146034802F078FD0121014802F0FB
:100C700068FD0EBD0010004010B500F003F8FFF74E
:100C8000DBFF10BD08B54FF4E06001F0C5FE1E208B
:100C90008DF8000000208DF801008DF80200012081
:100CA0008DF80300684601F07FFE08BD08B50121FC
:100CB000042002F0C5FB0120ADF8000010208DF8E3
:100CC000030003208DF802006946044800F0B4FDDB
:100CD0000121024800F044FE08BD00000008014068
:100CE00010B5044604F010F8462003F0DFFF04F0CE
:100CF00037F8012800D110BD204603F0D7FF04F0DB
:100D00002FF8012801D10220F5E704F017F80020A0
:100D1000F1E710B500F030FE00F004F81020FFF706
:100D2000DFFF10BD10B50120FFF7DAFF10BD10B5D1
:100D3000002403F0E9FF472003F0B8FF04F010F8A7
:100D4000012801D1002010BD03F08CFF044603F000
:100D50003FFF03F087FF00EB042084B203F06AFF3B
:100D600003F0ECFF2046EEE700BFFEE70FB410B53E
:100D7000CCB002AC4FA801904FF4947102A8019B33
:100D80004E9A02F06BFF002001900EA1104802F075
:100D900005FF0BE014F8011B0D4802F04BFE00BFED
:100DA00040210B4802F07DFD0028F9D02078002872
:100DB000F0D108A1064802F0F1FE4CB010BC5DF87D
:100DC00014FB00005B4C4F475D202F3E20000000CD
:100DD000003801400D0A000010B5002415480068D5
:100DE00020F00F00134908600846006840F0080032
:100DF000086004E0601CC4B2012000F023F90E4832
:100E0000006808B1642CF5DB642C01DB012010BD07
:100E1000002404E0601CC4B2012000F013F906486D
:100E2000006808B9642CF5DB642C01DB0120EEE7D7
:100E30000020ECE7040801402001214208B501210F
:100E4000042002F0FDFA4FF48070ADF8000010208D
:100E50008DF8030003208DF802006946064800F073
:100E6000EBFC4FF48071044800F07CFD00F072F858
:100E7000FFF7B2FF08BD00000008014010B50024D4
:100E800004E0601CC4B2012000F0DCF80D480068EA
:100E900008B1642CF5DB002404E0601CC4B201201E
:100EA00000F0D0F80748006808B9642CF5DB28206A
:100EB00000F0C8F80348006808B1012010BD002008
:100EC000FCE700002001214270B50024002506E067
:100ED0006006040EFFF7D2FF0443681CC5B2082D5C
:100EE000F6DB204670BD2DE9FC4105460E4617464F
:100EF000984600F02FF8FFF76FFF30BB002405E0A5
:100F0000FFF7E2FF0DF80400601CC4B2052CF7DB0C
:100F10009DF800009DF8011008449DF80210084457
:100F20009DF8031008449DF80410884210D19DF8E4
:100F3000000028709DF8010030709DF802003870A4
:100F40009DF8030088F8000002E00120BDE8FC8164
:100F50000020FBE710B50C48006820F00F000A499C
:100F600008600846006840F0030008600020074958
:100F70000860142000F032F801200549C1F8A001F2
:100F80001E2000F05FF810BD04080140A0012142BE
:100F9000000021427047000010B56FF0040002F01D
:100FA0003FFB0A4800680A49B0FBF1F009490870A4
:100FB0000846007800EB4001C1EBC0104FF6FF710E
:100FC00001EAC0000449088010BD000000000020B4
:100FD00000127A00820A0020840A00200146114A89
:100FE00012884A434FF0E0235A6100229A611A4660
:100FF000126942F001021A6100BF4FF0E02210694D
:1010000000F001021AB100F48032002AF5D04FF04E
:10101000E022126922F001024FF0E0231A6100225F
:101020009A617047840A002030B50446002505E027
:101030004FF47A70FFF7D2FF681CC5B2A542F7D310
:1010400030BD00000146114A12784A434FF0E023B8
:101050005A6100229A611A46126942F001021A612D
:1010600000BF4FF0E022106900F001021AB100F455
:101070008032002AF5D04FF0E022126922F00102FE
:101080004FF0E0231A6100229A617047820A002023
:1010900010B54FF480610348FFF785F8002002493E
:1010A000088010BDD40B0020A40A002070B50546AE
:1010B000002400BF00F020FA80B90DA10E48FFF710
:1010C0007DF8044654B13A212046FFF789F80446DA
:1010D00014B1641C204670BD0020FCE70520FFF71A
:1010E0007DFF681E85B2002DE4DC0020F3E70000E0
:1010F0004950442C00000000D40B002008B5012109
:10110000082002F09DF94FF48070ADF80000102027
:101110008DF8030003208DF802006946454800F071
:101120008BFB00224FF48071424800F01DFCFA2036
:10113000FFF754FF012211023E4800F015FC4FF466
:10114000FA70FFF74BFFFFF7A3FF3BA0FFF70EFE80
:1011500003E04FF4FA70FFF741FF3EA13EA000F01C
:101160007DF90028F5D13EA0FFF700FE38A142A08E
:1011700000F074F94FF4FA70FFF730FF34A141A08A
:1011800000F06CF94FF4FA70FFF728FF41A0FFF769
:10119000EDFD03E04FF4FA70FFF720FF2DA148A00A
:1011A00000F05CF90028F5D149A0FFF7DFFD03E06E
:1011B0004FF4FA70FFF712FF26A14FA000F04EF98E
:1011C0000028F5D150A253A155A0FFF7CFFD03E0B1
:1011D0004FF4FA70FFF702FF1EA161A000F03EF984
:1011E0000028F5D167A0FFF7C1FD03E04FF4FA70C6
:1011F000FFF7F4FE17A166A000F030F90028F5D142
:1012000067A269A16CA0FFF7B1FD03E04FF4FA708B
:10121000FFF7E4FE73A175A000F020F90028F5D1D6
:1012200001207D4908707DA0FFF7A0FD85A0FFF794
:101230009DFD08BD000C0140302E204154202D2082
:10124000B2E2CAD44D43552D38323636CDA8D1B688
:10125000000000004F4B000041540D0A0000000048
:10126000312E2041542B525354202D20C8EDB8B4B8
:10127000CEBB38323636000041542B5253540D0A3F
:101280000000000041542B434950434C4F53450D3F
:101290000A000000322E2041542B43574D4F444545
:1012A0003D312C31202D20C9E8D6C338323636B92D
:1012B000A4D7F7C4A3CABDCEAA535441000000006E
:1012C00041542B43574D4F44453D310D0A0000001A
:1012D000332E2041542B4357444843503D312C3149
:1012E000202D20CAB9C4DC535441C4A3CABDCFC207
:1012F000444843500000000041542B4357444843A6
:10130000503D312C310D0A006C7877313232353155
:10131000332E00006372617A796B756B7500000083
:10132000342E2041542B43574A4150202D20C1AC2C
:10133000BDD357494649202D3E205B205353494495
:101340003A202573205D20202D3E205B20506173C4
:1013500073776F72643A202573205D2000000000CF
:1013600041542B43574A41503D226372617A796B55
:10137000756B75222C226C78773132323531332EF1
:10138000220D0A00352E204349504D55580D0A00B4
:1013900041542B4349504D55583D300D0A00000033
:1013A000313838330000000034372E39382E3132CE
:1013B000322E323339000000362E2041542B43495F
:1013C000505354415254202D20C1ACBDD3B7FECE52
:1013D000F1C6F7202D3E205B2025733A2573205D52
:1013E00000000000434F4E4E4543540041542B43F0
:1013F000495053544152543D22544350222C2234DC
:10140000372E39382E3132322E323339222C3138C0
:1014100038330D0A0000000040000020372E204520
:1014200053503832363620496E6974204F4B202D88
:101430002045535038323636B3F5CABCBBAFB3C9BA
:10144000B9A6000045535038323636B3F5CABCBB96
:10145000AF0909095B4F4B5D000000002DE9F04129
:1014600004460D46C8262046FEF7C4FE87B23A461B
:1014700021460D4802F0B6FB0FE000F03DF848B9F8
:1014800029460A48FEF79AFE20B1FFF701FE002028
:10149000BDE8F0810A20FFF7A1FD301EA6F1010191
:1014A000CEB2EAD10120F3E700440040D40B002083
:1014B00030B589B004460D46FFF7EAFD2A4608A17B
:1014C00001A802F0B7FB0AA101A8FFF7C7FF20B9E6
:1014D0002A462146074802F085FB09B030BD0000CE
:1014E00041542B43495053454E443D25640D0A0059
:1014F0003E000000004400400A48008808B901206E
:1015000070470848008808490988884203D10020AC
:1015100004490880F4E70348008803490880012053
:10152000EEE70000A40A0020A60A002010B54FF440
:10153000805000F051F820B101F078FA01202149E3
:1015400008704FF4005000F047F820B101F06EFA37
:1015500002201C4908704FF4804000F03DF868B14B
:1015600018480078012802D105201749087015484D
:101570000078022802D10320134908704FF400407C
:1015800000F02AF868B10F480078012802D106203F
:101590000D4908700B480078022802D104200A493E
:1015A00008704FF4805000F011F84FF4005000F034
:1015B0000DF84FF4804000F009F84FF4004000F0BF
:1015C00005F810BD2A00002029000020014908600C
:1015D0007047000014040140014600200022074B20
:1015E0001B6803EA0102054B14331B680B4013B15F
:1015F0000AB1012000E00020704700000004014013
:10160000002123498279002A3AD00A4612680368E9
:101610009A430B461A600A1D126803689A430B1D11
:101620001A60027911440A6803681A430A60184A6A
:101630000832126803689A43154B08331A601A1D62
:10164000126803689A43124B0C331A604279102ACD
:101650000ED11A1F126803681A430D4B08331A6023
:101660001A1D126803681A43094B0C331A600DE007
:101670000749427911440A6803681A430A6005E081
:10168000027911440A6803689A430A6070470000AF
:10169000000401400EB500F09BF80121082001F084
:1016A000CFFE4FF48050ADF8080048208DF80B00B5
:1016B00002A9464800F0C0F80121084601F0C0FE2A
:1016C0000C21012000F098F84FF480500090002089
:1016D0008DF804000C208DF8050001208DF806001F
:1016E0006846FFF78DFF0121082001F0A9FE4FF4A5
:1016F0000050ADF8080048208DF80B0002A93348CF
:1017000000F09AF80D21012000F076F8012108463A
:1017100001F096FE4FF40050009000208DF8040078
:101720000C208DF8050001208DF806006846FFF7B3
:1017300067FF0121082001F083FE4FF48040ADF8DF
:10174000080048208DF80B0002A9204800F074F82A
:101750000E21012000F050F80121084601F070FE32
:101760004FF48040009000208DF804000C208DF88C
:10177000050001208DF806006846FFF741FF0121B2
:10178000082001F05DFE4FF40040ADF8080048204D
:101790008DF80B0002A90D4800F04EF80F21012032
:1017A00000F02AF80121084601F04AFE4FF40040FB
:1017B000009000208DF804000C208DF80500012019
:1017C0008DF806006846FFF71BFF0EBD000C0140B8
:1017D00008B54FF4A06001F01FF928208DF8000033
:1017E00001208DF801008DF802008DF80300684695
:1017F00001F0DAF808BD000030B500228B071C0F9D
:101800000F2303FA04F20B4B8C1053F8243093434C
:10181000084C8D1044F8253023468C1053F82430A2
:101820008C07240F00FA04F42343024C8D1044F873
:10183000253030BD080001402DE9F0410246002569
:101840000026002000230024002791F803C00CF09C
:101850000F0591F803C00CF0100CBCF1000F03D081
:1018600091F802C04CEA050591F800C0BCF1000FE8
:1018700031D0146800202BE04FF0010C0CFA00F37B
:10188000B1F800C00CEA03069E4220D183004FF05D
:101890000F0C0CFA03F7BC4305FA03FC4CEA0404F2
:1018A00091F803C0BCF1280F06D14FF0010C0CFADF
:1018B00000FCC2F814C00AE091F803C0BCF1480F64
:1018C00005D14FF0010C0CFA00FCC2F810C0401C0E
:1018D0000828D1D31460B1F800C0BCF1FF0F34DD8B
:1018E000546800202EE000F1080C4FF0010808FABF
:1018F0000CF3B1F800C00CEA03069E4221D183002C
:101900004FF00F0C0CFA03F7BC4305FA03FC4CEA4A
:10191000040491F803C0BCF1280F05D100F1080CB4
:1019200008FA0CF8C2F8148091F803C0BCF1480F13
:1019300007D100F1080C4FF0010808FA0CF8C2F8C2
:101940001080401C0828CED35460BDE8F0810246C8
:10195000002093680B400BB1012000E0002070478D
:1019600041617047016170470AB1016100E0416166
:10197000704700BFFEE7000008B50121082001F014
:101980005FFD4FF44070ADF8000003208DF80200B9
:1019900014208DF8030069460248FFF74DFF03F05D
:1019A000CDF908BD000C014070B5024600240025A9
:1019B00000230020958A138B1B0445EA030626F0BA
:1019C0007F4404EA01068E4201D1012000E000209C
:1019D00070BD21B1028842F00102028004E0028859
:1019E0004FF6FE731A4002807047000000B585B0C4
:1019F0000121480501F004FD0121082001F020FD2E
:101A0000C020ADF8000003208DF802001C208DF8E6
:101A1000030069461148FFF70FFF114800F024F852
:101A20000020ADF808004BF6FF70ADF80A0030203A
:101A3000ADF80C004FF48060ADF80E000001ADF879
:101A400010000848019001210548FFF7C2FF01A9D5
:101A5000034800F05BF805B000BD0000000C014039
:101A600000540040801A060010B504460B4884421A
:101A700009D10121480501F0D3FC00214FF40010E9
:101A800001F0CEFC08E00121880501F0C9FC00212D
:101A90004FF4800001F0C4FC10BD00000054004071
:101AA00021B1028842F48072028004E002884FF67D
:101AB000FF631A400280704721B1028842F400722D
:101AC000028004E002884FF6FF531A4002807047FC
:101AD0000CB50246002000230193009300920B0FE7
:101AE000019321F07F41019B1BB1009B14330093B4
:101AF00003E0090C009B18330093009B1B680B400C
:101B00000BB1012000E000200CBD00002DE9F043E6
:101B100085B004460D460026B1460427DFF8CC8088
:101B2000A6884FF6C0700640684601F099FCDDF8C3
:101B300008802F48B8FBF0F01FFA80F946EA090642
:101B4000A68020884FF6FE71084020800026294993
:101B5000286888420CD828684000B8FBF0F087B2AB
:101B6000042F00DA04273E4309F10100208427E016
:101B7000E8884BF6FF71884206D1286800EB4000E8
:101B8000B8FBF0F087B209E0286800EBC00101EB78
:101B90000010B8FBF0F087B247F48047C7F30B00A2
:101BA00008B947F0010747F4004006434FF4967028
:101BB00009FB00F04FF47A7190FBF1F0401C208497
:101BC000A683208840F00100208026884FF6F5305B
:101BD0000640A8886989084306432680A889298980
:101BE0000843208105B0BDE8F083000000127A00B0
:101BF00040420F00A086010012B141F0010102E055
:101C00004FF6FE7319400182704701827047000051
:101C100070B504460D4600BF4FF400311C48FFF775
:101C200057FF0028F8D101211948FFF739FF00BFFD
:101C300018491748FFF7B8FE0028F9D0002278218C
:101C40001348FFF7D9FF00BF13491148FFF7ACFE57
:101C50000028F9D021460E48FFF7D7FF00BF0E49F4
:101C6000891C0B48FFF7A0FE0028F8D02946084839
:101C7000FFF7CBFF00BF0849891C0548FFF794FE1A
:101C80000028F8D001210248FFF716FF70BD0000C0
:101C900000540040010003008200070008B5012144
:101CA000182001F0CDFB0220ADF8000010208DF8C7
:101CB000030003208DF8020069460A48FFF7BCFDC7
:101CC00002210948FFF74CFE4FF40050ADF8000028
:101CD00069460648FFF7B0FD4FF400510348FFF78F
:101CE00041FE08BD00080140000C01400010014009
:101CF00070B5FFF71CF80646FEF745FC054604499B
:101D0000FEF7E1FA04464FF07E51FEF7AAFA70BDE5
:101D1000CDCC8C3F10B50446207B012802D1206831
:101D200002F02EFF002020606060A060207310BDD4
:101D30000246002301230DE002F07F000870D20963
:101D40002AB1087840F080000870491C01E018466C
:101D500070475B1C042BEFDD4FF0FF30F8E770B5E8
:101D600004460E460025206898B9012020733046AD
:101D700003F05AF920602068E0B100206060A6609E
:101D800003E00020216848556D1CA068A842F8D8DF
:101D900010E00220207303E00020216848556D1CEC
:101DA000A068A842F8D800206060A068B04201D2C4
:101DB0000020206070BD00002DE9FF4F83B08246F7
:101DC0008B469146159C0025002002900F2701901C
:101DD0004846FEF70FFA0FFA80F8B9F1000F03D169
:101DE000012007B0BDE8F08F08F10200384487B247
:101DF000109808B145F00205129878B145F0040535
:101E00001298FEF7F7F9C0B202901398FEF7F2F9B4
:101E100001460298001D0844384487B2119820B149
:101E2000012804D0022808D104E000BF07E045F0F3
:101E30000C0504E045F0140501E00220D1E700BFE5
:101E4000149808B145F02405BAF1000F02D0BBF197
:101E5000000F01D10320C4E745F0C0055046FEF74E
:101E6000C9F906465846FEF7C5F93044001D384406
:101E700087B239462046FFF772FF206808B9042070
:101E8000AFE739462068FEF78EF910216268501CD2
:101E9000606020688154D4E90023D118781FFFF7CF
:101EA00047FF00B201900198002804DA2046FFF7AE
:101EB00031FF052095E761680198084460600021C2
:101EC0006268501C60602068815404216268501C64
:101ED0006060206881544D216268501C60602068F9
:101EE000815451216268501C6060206881545421E3
:101EF0006268501C6060206881546268501C606099
:101F00002068815404216268501C606020688154FC
:101F10006168481C6060206845540698010A626840
:101F2000501C6060206881540698C1B26268501CE1
:101F3000606020688154C8F307216268501C6060AB
:101F4000206881546268501C6060206800F802803C
:101F5000D4E90012881842464946FEF752F96068F3
:101F60004044606005F00400B8B30026139808B937
:101F700038A013901298FEF73DF986B2310A6268D4
:101F8000501C6060206881546268501C606020684A
:101F90008654D4E90012881832461299FEF731F9B6
:101FA0006068304460601398FEF724F986B2310A05
:101FB0006268501C6060206881546268501C6060D8
:101FC00020688654D4E90012881832461399FEF727
:101FD00018F960683044606000BF05F08000C8B147
:101FE0005046FEF707F986B2310A6268501C6060FD
:101FF000206881546268501C606020688654D4E96F
:102000000012881832465146FEF7FBF860683044EB
:10201000606000BF05F04000C8B15846FEF7EAF81E
:1020200086B2310A6268501C606020688154626820
:10203000501C606020688654D4E90012881832462B
:102040005946FEF7DEF860683044606000BF00204B
:10205000C7E60000000000002DE9FF4F83B0834673
:1020600090469946139C002600250020029001907E
:102070000027BBF1000F03D1012007B0BDE8F08FAE
:1020800000250AE00498405D232803D00498405DB1
:102090002B2801D10220F0E76D1C0498405D002838
:1020A000F0D147F03007119808B147F0010705EB70
:1020B0000900861C109820B1012804D002280AD1FA
:1020C00005E000BF09E047F00207B61C05E047F055
:1020D0000407B61C01E00320CFE700BF98F800001A
:1020E000022822D14FF0000A00BF50460AF1010A2F
:1020F00018F800007D28F8D1AAF1030A0AF10700B8
:1021000002900298A9EB000AF01CA0EB0A012046FD
:10211000FFF725FE206808B90420AEE7F21CA2EB09
:102120000A012068FEF73FF80BE0F11C2046FFF79C
:1021300016FE206808B904209FE7F11C2068FEF70E
:1021400032F86168481C606020684754D4E9000296
:1021500081183046FFF7ECFD01900198002804DA61
:102160002046FFF7D7FD052087E7616801980844FE
:102170006060C5F307216268501C6060206881546C
:102180006268501C606020688554D4E90012881889
:102190002A460499FEF735F8606828446060109874
:1021A00060B14FEA1B216268501C60602068815456
:1021B0006268501C6060206800F802B0B8F1000F3F
:1021C00019D098F8000002280BD1D4E90012881821
:1021D0004146029AFDF7CEFF6168029808446060AC
:1021E00009E0D4E9001288184A464146FDF7C2FFCB
:1021F00060684844606000203FE770B505460C46C3
:1022000004212046FFF7ABFD206808B9012070BD0E
:1022100070216268501C60602068815402216268ED
:10222000501C60602068815429126268501C6060F4
:10223000206881546268501C6060206885540020CA
:10224000E5E770B505460C4604212046FFF787FDFB
:10225000206808B9012070BD62216268501C60606E
:102260002068815402216268501C6060206881549B
:1022700029126268501C6060206881546268501C9A
:102280006060206885540020E5E72DE9FF5F804607
:10229000174699460E9C0026B246B3460025B8F173
:1022A000000F03D1012004B0BDE8F09F0BE057F808
:1022B000250008B90220F6E757F82500FDF79AFF38
:1022C0000644681CC5B24D45F1DB09EB4900801C92
:1022D00000EB060A0AF105012046FFF740FD2068E1
:1022E00008B90320DFE782216268501C6060206823
:1022F0008154D4E9000281185046FFF719FD0FFA06
:1023000080FBBBF1000F04DA2046FFF703FD042039
:10231000C9E76068584460604FEA18216268501C41
:102320006060206881546268501C6060206800F81A
:102330000280002524E057F82500FDF75BFF0646E4
:10234000C6F307216268501C60602068815462688F
:10235000501C606020688654D4E90023D01857F8D8
:1023600025103246FDF74DFF6068304460600198EB
:10237000C1B26268501C606020688154681CC5B29C
:102380004D45D8DB00208EE7F0B504460D462646C5
:10239000012300201060002114E0775C07F07F0724
:1023A000106807FB03001060705C00F0800008B943
:1023B000481CF0BDDB01B3F5001F02D36FF0010034
:1023C000F7E7491CA942E8DB4FF0FF30F1E72DE9C0
:1023D000F84380460C4615461E462F2108F106009C
:1023E000FDF7FEFE07460020009017B90120BDE86A
:1023F000F8837F1C6A46042108F10100FFF7C4FF3F
:10240000252002F011FE2060206808B90220EEE7C6
:1024100025212068FDF7C7FE242239462068FDF7F4
:10242000A9FE243700982C3830803188481C02F0EF
:10243000FBFD2860286820B9206802F0A1FB03207A
:10244000D5E73288511C2868FDF7ADFE3288394641
:102450002868FDF78FFE0020C9E70146487802286A
:1024600001D001207047887810B18878012801D107
:10247000C878F7E7FF20F5E72DE9FC5F81460D46B8
:1024800014461E46DDE90C8B99F8000000F00F0A97
:10249000002001900AF008000090CAF341008BF878
:1024A000000001AA042109F10100FFF76DFF484473
:1024B000471C0198022802D30AF0010010B1FF2046
:1024C000BDE8FC9F7878397840EA01202080208898
:1024D000801C0199884201D9FF20F1E754A1B81C62
:1024E000FDF76CFE08B10F20EAE79BF8000020B171
:1024F00001283DD0022877D13BE0009808B1FF20A9
:10250000DEE72188481C02F08FFD2860286808B9A2
:10251000FF20D5E72288511C2868FDF744FE228859
:10252000B91C2868FDF726FE0198801E2188401AF4
:10253000A8F80000B8F80010481C02F075FD3060E3
:10254000306820B9286802F01BFBFF20B8E7B8F814
:102550000020511C3068FDF726FEB8F80020B4F8C2
:1025600000C0BB1C0CEB03013068FDF703FE4FE01D
:1025700000BF2088801C0199884201D9FF209FE775
:102580002088C01C395C2088801C385C41EA00210E
:102590000E9801800E9808B9FF2091E72188481C09
:1025A00002F042FD2860286808B9FF2088E72288E9
:1025B000511C2868FDF7F7FD2288B91C2868FDF733
:1025C000D9FD0198001F2188401AA8F80000B8F82A
:1025D0000010481C02F028FD3060306828B92868D7
:1025E00002F0CEFAFF206BE710E0B8F80020511C93
:1025F0003068FDF7D8FDB8F80020B4F800C03B1DE6
:102600000CEB03013068FDF7B5FD01E0FF2057E753
:1026100000BF2B212846FDF7E3FD20B923212846E2
:10262000FDF7DEFD08B1FF204AE7002048E7000083
:10263000246372657100000001464878022801D0C9
:1026400001207047887820B9C8780A2801D1002075
:10265000F7E70120F5E701464878022801D001207C
:102660007047887820B9C8780A2801D10020F7E798
:102670000120F5E701464878022801D00120704783
:10268000887820B9C8780A2801D10020F7E701200E
:10269000F5E702465078022801D001207047907873
:1026A000B0EB112F05D1D078CBB2984201D10020E8
:1026B000F4E70120F2E70000F8B50446FF27207890
:1026C0000511012D01DB0E2D01DD3846F8BD032D6E
:1026D00024D1002000906A460421601CFFF754FEBC
:1026E0002044461C0098022803D3207800F0010003
:1026F00008B1FF20EAE77078317840EA0120801CB9
:102700000099884201D9FF20E0E706A1B01CFDF73F
:1027100055FD08B10F2700E0032700E02F4638469B
:10272000D4E7000024637265710000000146FF20B9
:102730008A78A2B9CA78142A11D10A7932B1012A49
:1027400005D0022A04D0802A06D103E000BF00BFD2
:10275000002003E0012001E0022000BF00BF70471D
:10276000014601208A781AB9CA781E2A00D10020B1
:102770007047000030B587B04F4B504A5049514820
:10278000FEF7B1FB462002F03FFA18B9FFF7B0FAA6
:102790004D4908604FF400514C48FFF7D8F84C49B8
:1027A00008704C48007803280FD100F03FF902F080
:1027B00025F9022348A20421282000F0F1F902F0B3
:1027C00069FC00204349087012E042480078042860
:1027D0000ED100F02BF902F011F9022340A20421DE
:1027E000282000F0DDF902F005FD002039490870CD
:1027F0003D4801683DA0FEF7B9FA33480068FDF78F
:1028000010FF04460D463D48007808B13CA000E0AA
:102810003EA02F49097809B13EA100E038A1CDE9D9
:102820000245CDE90410244800780090234803783D
:1028300023480278234801783848FEF797FA38A1F0
:10284000394801F0F7F90223374A0021202000F02F
:10285000A7F91B4803781B48027834A1324801F0DD
:10286000E9F90223304A1946002000F099F912488C
:1028700003781248027831A12B4801F0DBF90223DA
:10288000294A0421002000F08BF90F480068FDF769
:10289000C8FE044622460B462CA1234801F0CAF983
:1028A0000223214A0621002000F07AF90220FEF7D7
:1028B000BBFB07B030BD0000300000202F0000201F
:1028C0002E0000202D0000203400002000100140C8
:1028D00038000020290000204F50454E0000000025
:1028E000434C4F5345000000880A00206C6967681C
:1028F000747661203D2025640A0000002B00002032
:10290000A1BEC6F4B6AFA1BF00000000CDA3D6B9EA
:1029100000000000B9D8B1D500000000A46E000886
:1029200057656C636F6D6500C00B002048756D3A8C
:1029300025642E25642025250000000054656D7057
:102940003A25642E25642043000000004C69676826
:10295000743A252E3166204C7800000000BFFEE757
:1029600008B50121042000F06BFD10208DF8030054
:10297000F020ADF8000003208DF8020069460848F9
:10298000FEF75AFF69460648FEF756FF69460448B7
:10299000FEF752FF69460248FEF74EFF08BD0000F1
:1029A000000801407047000070B5002100230F228D
:1029B000C47804B3154C246804F4E064C4F5E064FE
:1029C000210AC1F10403CA40447804FA03F184786F
:1029D0001440214309010E4C0678A155047804F0F7
:1029E0001F050124AC4005786D11AD0005F1E0250F
:1029F000C5F8004109E0047804F01F050124AC404B
:102A0000044D0678761145F8264070BD0CED00E0C7
:102A100000E400E080E100E002490143024A116065
:102A2000704700000000FA050CED00E010B5002032
:102A300000F001F810BD70B50646002415E004F161
:102A4000B001C8B201F0E7F8002001F0E4F810206E
:102A500001F0E1F8002504E0304601F0E3F8681CDD
:102A6000C5B2802DF8DB601CC4B2082CE7DB70BD5A
:102A700010B56420FEF7B2FAAE2001F0CCF82020A9
:102A800001F0C9F8102001F0C6F8B02001F0C3F839
:102A9000C82001F0C0F8002001F0BDF8102001F0BE
:102AA000BAF8402001F0B7F8812001F0B4F8FF2017
:102AB00001F0B1F8A12001F0AEF8A62001F0ABF8CA
:102AC000A82001F0A8F83F2001F0A5F8A42001F00B
:102AD000A2F8D32001F09FF8002001F09CF8D52047
:102AE00001F099F8F02001F096F8D92001F093F860
:102AF000222001F090F8DA2001F08DF8122001F088
:102B00008AF8DB2001F087F8202001F084F88D207E
:102B100001F081F8142001F07EF8AF2001F07BF87D
:102B200010BD70B504460D4605F1B001C8B201F004
:102B300072F8102141EA141001F06DF804F00F0151
:102B400041F0010001F067F870BD00002DE9F0418F
:102B500080460E46174600247D0131464046FFF769
:102B6000E0FF00BF06E00D49485D01F05BF86D1C19
:102B7000601CC4B2102CF6DB701CC1B24046FFF7DB
:102B8000D0FF002406E00549485D01F04BF86D1CBC
:102B9000601CC4B2102CF6DBBDE8F08142000020BE
:102BA0002DE9F0470646894617469A464FF0000839
:102BB00000240025BAF1010F03D0BAF1020F5ED153
:102BC00025E020E0785D203800F0FF087E2E04DD4F
:102BD000002609F1010000F0FF0949463046FFF7E1
:102BE000A0FF002409E008EB4801264A02EB41015E
:102BF000085D01F017F8601CC4B2062CF3DBB01DB1
:102C0000C6B2681CC5B2785D0028DBD137E032E07F
:102C1000785D203800F0FF08782E04DD002609F1E9
:102C2000010000F0FF0949463046FFF77AFF002413
:102C300007E004EB0811144A505C00F0F3FF601C3D
:102C4000C4B2082CF5DB09F10100C1B23046FFF730
:102C500068FF002408E004EB081108310A4A505CC0
:102C600000F0E0FF601CC4B2082CF4DB06F10800A1
:102C7000C6B2681CC5B2785D0028C9D100BF00BFCC
:102C8000BDE8F087B4640008DC66000870B5BAB02F
:102C900000200690079008900990012636480568A4
:102CA0002B4636A239A12AA800F0C4FF2B4633A236
:102CB00036A11AA800F0BEFF2B4630A233A10AA805
:102CC00000F0B8FF0AA81AAB2AAA32A10090414826
:102CD00000F064FF06A8002102910391CDE90410E1
:102CE000009133020AAA01911AA92AA8FFF764F8F1
:102CF00000283BD1079A91B20698FEF7D9FBFA203B
:102D0000FEF7D4F90446002C2CD02046FFF7D4FC63
:102D1000022827D12046FFF7A0FB06281DD2DFE8B6
:102D200000F003080C1014182BA0FEF71FF8002663
:102D300017E02EA0FEF71AF813E033A0FEF716F8FE
:102D40000FE03AA0FEF712F80BE040A0FEF70EF8F5
:102D500007E047A0FEF70AF803E050A0FEF706F8E8
:102D600000BF00BF06A8FEF7D5FF02E052A0FDF7A6
:102D7000FDFF30463AB070BDE8F7FF1F736D61721A
:102D800074686F6D655F74740000000025735F25C3
:102D9000580000004F6E654E65745F4465764C695F
:102DA0006E6B0D0A50524F49443A2025732C09414D
:102DB0005549463A2025732C0944455649443A253D
:102DC00073092D2D2D20C1ACBDD3D6D02E2E2E2E85
:102DD0000D0A000000380140546970733A09C1AC13
:102DE000BDD3B3C9B9A60D0A000000005741524E29
:102DF0003A09C1ACBDD3CAA7B0DCA3BAD0ADD2E901
:102E0000B4EDCEF30D0A00005741524E3A09C1AC61
:102E1000BDD3CAA7B0DCA3BAB7C7B7A8B5C4636CA3
:102E200069656E7469640D0A000000005741524ED6
:102E30003A09C1ACBDD3CAA7B0DCA3BAB7FECEF184
:102E4000C6F7CAA7B0DC0D0A000000005741524E79
:102E50003A09C1ACBDD3CAA7B0DCA3BAD3C3BBA7E0
:102E6000C3FBBBF2C3DCC2EBB4EDCEF30D0A000032
:102E70005741524E3A09C1ACBDD3CAA7B0DCA3BA80
:102E8000B7C7B7A8C1B4BDD328B1C8C8E7746F6BC2
:102E9000656EB7C7B7A8290D0A0000004552523A1F
:102EA00009C1ACBDD3CAA7B0DCA3BACEB4D6AAB40C
:102EB000EDCEF30D0A0000005741524E3A094D5134
:102EC00054545F5061636B6574436F6E6E656374D9
:102ED000204661696C65640D0A00000070B588B019
:102EE00005460C4600200490059006900790224667
:102EF00029460FA0FDF73AFF2046FDF77BF906466D
:102F000004A80121002200923346CDE9012103905B
:102F1000224629460A20FFF79FF838B9059A91B250
:102F20000498FEF7C5FA04A8FEF7F4FE08B070BDD9
:102F30005075626C69736820546F7069633A20251C
:102F4000732C204D73673A2025730D0A0000000092
:102F50002DE9F04F8FB0814600200B900C900D9022
:102F60000E900A900990089007900027069000267E
:102F7000002582464846FFF79FFB0746F81E0D28AE
:102F800074D2DFE800F01A929AB2CCECD4ECE0EC08
:102F9000ECEC070007AB0AAA09A94846FFF717FAA5
:102FA00006464EB9BDF81C3086A0DDE90912FDF7D2
:102FB000DDFE0BA8FEF7AEFED4E08B4806A907AAFB
:102FC0000AABCDE90021029008AA09A94846FFF7FB
:102FD00053FA0646002E67D1BDF81C000090BDF8DC
:102FE000202082A0DDE90913FDF7C0FE0A9801F058
:102FF00067FD8046B8F1000F08D101F03BFD834624
:103000005A4689A18D4800F0C9FD4AE08CA140468E
:1030100001F036FD04468CA0216AFDF7A7FE8AA0C8
:103020002169FDF7A3FE8DA12069FDF7C7F870B1F6
:103030008BA1404601F024FD0446606918B10020D0
:10304000894908602DE001208749086029E087A1AF
:103050002069FDF7B3F868B181A1404601F010FD89
:103060000446606918B102F015F81AE077E002F042
:10307000C1F816E07FA12069FDF7A0F888B178A11A
:10308000404601F0FDFC0446606928B17C480068B8
:1030900014307B49086004E07948006814387849A6
:1030A0000860404601F0BAFC5CE04846FFF7C4FA0D
:1030B00010B974A0FDF75AFE54E04846FFF7DAFA5B
:1030C00090B978A0FDF752FE0BA90A20FFF7B9F8D6
:1030D00050B97AA0FDF74AFE0C9A91B20B98FEF710
:1030E000E7F90BA8FEF716FE3CE03F48018848468A
:1030F000FFF7CFFA90B977A0FDF738FE0BA90A20A9
:10310000FFF77BF850B979A0FDF730FE0C9A91B229
:103110000B98FEF7CDF90BA8FEF7FCFD22E0484620
:10312000FFF799FA10B978A0FDF720FE1AE048469B
:10313000FFF7FCFA18B97AA0FDF718FE02E07FA0AD
:10314000FDF714FE0EE04846FFF70AFB18B982A00F
:10315000FDF70CFE02E087A0FDF708FE02E04FF04D
:10316000FF3600BF00BFFDF793FF701C10B90FB012
:10317000BDE8F08F7D210A98FDF732F80546A5B12C
:10318000701C90B16D1C06E015F8012B50460AF139
:10319000010A03A90A542878302802DB2878392844
:1031A000F2DD03A8FDF750F882460F2F01D0032F60
:1031B00005D1099801F0E4FC0A9801F0E1FC00BF98
:1031C000D5E70000636D6469643A2025732C207292
:1031D00065713A2025732C207265715F6C656E3ABB
:1031E0002025640D0A000000A20A0020746F706997
:1031F000633A2025732C20746F7069635F6C656E71
:103200003A2025642C207061796C6F61643A202526
:10321000732C207061796C6F61645F6C656E3A200D
:1032200025640D0A000000004572726F722062650D
:10323000666F72653A205B25735D0A0000380140B5
:1032400074617267657400006A736F6E5F76616C9B
:1032500075653A205B25735D0A0000004C4544000B
:1032600076616C7565000000B40122424F50454EF6
:1032700000000000494E4352454153450000000004
:10328000880A0020546970733A094D5154542050F3
:1032900075626C6973682053656E64204F4B0D0A2C
:1032A00000000000546970733A0952657620507529
:1032B000626C6973685265630D0A0000546970732B
:1032C0003A0953656E64205075626C697368526583
:1032D0006C0D0A00546970733A0952657620507576
:1032E000626C69736852656C0D0A000054697073F2
:1032F0003A0953656E64205075626C697368436F58
:103300006D700D0A00000000546970733A0952652F
:1033100076205075626C697368436F6D700D0A009A
:10332000546970733A094D51545420537562736354
:1033300072696265204F4B0D0A000000546970737A
:103340003A094D5154542053756273637269626532
:10335000204572720D0A0000546970733A094D518C
:10336000545420556E537562736372696265204FC1
:103370004B0D0A00546970733A094D51545420554D
:103380006E537562736372696265204572720D0ACD
:103390000000000070B586B004460D4600260020EF
:1033A000029003900490059006E054F826100DA0BA
:1033B000FDF7DCFC701CC6B2AE42F6DB02A82B4661
:1033C0002246002100901420FEF75FFF38B9039ACF
:1033D00091B20298FEF76CF802A8FEF79BFC06B0CB
:1033E00070BD000053756273637269626520546F2B
:1033F0007069633A2025730D0A00000070470000D1
:1034000029B1064AD2690243044BDA6104E0034A57
:10341000D2698243014BDA6170470000001002401C
:1034200029B1064A12690243044B1A6104E0034AB7
:1034300012698243014B1A6170470000001002407C
:1034400029B1064A92690243044B9A6104E0034A97
:1034500092698243014B9A6170470000001002405C
:1034600030B500210022002400232D4D6D6805F0A9
:103470000C0121B1042905D0082923D105E0294DEB
:10348000056022E0274D05601FE0254D6D6805F4BD
:103490007012234D6D6805F48034022505EB9242CD
:1034A0001CB9214D554305600BE01D4D6D6805F4B9
:1034B00000351DB11C4D5543056002E0194D5543C3
:1034C000056002E0174D056000BF00BF144D6D6838
:1034D00005F0F0010909154D6B5C0568DD4045609C
:1034E0000F4D6D6805F4E061090A104D6B5C45688D
:1034F000DD4085600A4D6D6805F46051C90A0B4DC9
:103500006B5C4568DD40C560054D6D6805F4404164
:10351000890B074D6B5CC568B5FBF3F5056130BDE4
:103520000010024000127A0000093D001400002043
:1035300024000020704710B500F002F810BD000014
:103540000CB50020019000903348006840F48030B2
:103550003149086000BF3048006800F40030009036
:103560000198401C0190009818B90198B0F5A06F1F
:10357000F1D12948006800F4003010B1012000901A
:1035800001E0002000900098012843D12348006802
:1035900040F01000214908600846006820F0030050
:1035A00008600846006840F0020008601A48406859
:1035B000194948600846406848600846406840F439
:1035C000806048600846406820F47C1048600846E7
:1035D000406840F4E81048600846006840F0807099
:1035E000086000BF0C48006800F000700028F9D0A7
:1035F0000948406820F003000749486008464068D1
:1036000040F00200486000BF0348406800F00C0032
:103610000828F9D10CBD0000001002400020024033
:10362000042808D14FF0E021096941F004014FF06E
:10363000E022116107E04FF0E021096921F0040167
:103640004FF0E0221161704730B50146B1F1807F43
:1036500001D3012030BD21F07F40401E4FF0E02219
:10366000506150170F22002807DA13071D0E094B6F
:1036700000F00F04241F1D5503E013071C0E064B1A
:103680001C5400BF00204FF0E02290610720106121
:103690000020DFE718ED00E000E400E070470000E4
:1036A00070B504460C48FFF7CFFF002508E000BFC7
:1036B0004FF0E020006900F480300028F8D06D1C45
:1036C000A542F4D34FF0E020006900F001004FF074
:1036D000E021086170BD00004019010010B51348D9
:1036E000006840F001001149086008464068104930
:1036F00008400E494860084600680E4908400B49DA
:1037000008600846006820F4802008600846406889
:1037100020F4FE0048604FF41F008860FFF70BFFA5
:103720004FF000600449086010BD00000010024026
:103730000000FFF8FFFFF6FE08ED00E0CA4302823A
:10374000704721B1028842F00102028004E0028841
:103750004FF6FE731A40028070471AB183890B43FB
:10376000838102E083898B43838170470022028832
:103770001D4B98420ED01D4B98420BD0B0F1804F9C
:1037800008D01B4B984205D01A4B984202D01A4BD6
:10379000984204D14FF68F731A404B881A43174B47
:1037A000984207D0164B984204D04FF6FF431A4078
:1037B000CB881A4302808B8883850B8803850A4B4C
:1037C00098420BD0094B984208D00E4B984205D036
:1037D0000D4B984202D00D4B984201D10B7A0386D3
:1037E0000123838270470000002C01400034014017
:1037F0000004004000080040000C004000100040A1
:1038000000140040004001400044014000480140D5
:1038100010B540F22551044800F050F818B12021AD
:10382000014800F029F810BD0038014010B540F201
:1038300025510E4800F042F8B8B10D480088B0F5A7
:10384000806F02D300200A4908800848001D0088C4
:10385000C1B2074802880088401C054B1880054803
:1038600081542021014800F007F810BD00440040B9
:10387000A40A0020D40B002001F40072B2F5007FEE
:1038800000D100BFCA430280704721B1828942F44F
:103890000052828104E082894DF6FF731A408281D2
:1038A000704702460020B1F5007F00D100BF1388A9
:1038B0000B400BB1012000E00020704770B50246BC
:1038C000002400230025002040F66A16B14200D1F2
:1038D00000BFC1F3421501F01F03012606FA03F3EE
:1038E000012D02D19689334006E0022D02D1168ABD
:1038F000334001E0968A33400C12012606FA04F4A4
:103900001688344013B10CB1012000E0002070BDD6
:10391000F0B50346002400260025002040F66A1773
:10392000B94200D100BF1846C1F3421401F01F068E
:10393000012707FA06F5012C01D10C3004E0022C16
:1039400001D1103000E014301AB107682F4307602E
:1039500002E00768AF430760F0BD00002DE9F047C3
:1039600086B005460E460024A24600BFA1460027A9
:10397000B08900B100BF2F462C8A4CF6FF7004407E
:10398000F08804432C82AC894EF6F3100440B088D2
:1039900031890843718908430443AC81AC8A4FF6EE
:1039A000FF400440B0890443AC8201A8FFF758FDF2
:1039B0001F48874202D1DDF810A001E0DDF80CA01D
:1039C000A88900F4004040B10AEBCA0000EB0A10DD
:1039D00031684900B0FBF1F807E00AEBCA0000EBE0
:1039E0000A1031688900B0FBF1F86420B8FBF0F0F0
:1039F00004012009642101FB1089A88900F400401A
:103A000040B1322000EBC900B0FBF1F000F007003C
:103A1000044308E0322000EB09106421B0FBF1F010
:103A200000F00F0004432C8106B0BDE8F0870000D1
:103A300000380140C1F308028280704700BFFEE7F2
:103A400010B586B0044601210420FFF7F9FC0121DE
:103A50008803FFF7F5FC18208DF817004FF400706D
:103A6000ADF8140003208DF8160005A91E48FDF7D7
:103A7000E3FE04208DF817000002ADF814000320C7
:103A80008DF8160005A91848FDF7D6FE0194002010
:103A9000ADF810000C20ADF80E000020ADF80C00C1
:103AA000ADF80A00ADF8080001A91048FFF756FF6D
:103AB00001210E48FFF7E9FE012240F225510B4893
:103AC000FFF726FF25208DF8000001208DF8030068
:103AD00000208DF8010002208DF802006846FEF7F4
:103AE00063FF06B010BD000000080140003801402F
:103AF00010B586B0044601210420FFF7A1FC012186
:103B00004804FFF77DFC18208DF817000420ADF85D
:103B1000140003208DF8160005A91E48FDF78CFE41
:103B200004208DF817000820ADF8140003208DF84C
:103B3000160005A91748FDF77FFE01940020ADF897
:103B400010000C20ADF80E000020ADF80C00ADF810
:103B50000A00ADF8080001A90F48FFF7FFFE012198
:103B60000D48FFF792FE012240F225510A48FFF767
:103B7000CFFE26208DF8000001208DF803000020E4
:103B80008DF801008DF802006846FEF70DFF06B0C3
:103B900010BD000000080140004400400FB430B5E3
:103BA000CBB0054601AC50A800904FF4947101A829
:103BB000009B4F9A00F052F8002000900BE014F8A0
:103BC000011B2846FFF736FF00BF40212846FFF7BC
:103BD00068FE0028F9D020780028F0D14BB030BC26
:103BE0005DF814FB2DE9F04107460C46154600260A
:103BF0000DE014F8011B3846FFF71CFF00BF402101
:103C00003846FFF74EFE0028F9D0701C86B2AE424F
:103C1000EFDBBDE8F08110B5044621460020FDF73A
:103C2000F7FF10BD10B5044621464020FDF7F0FF18
:103C300010BD00000FB4084B10B504A902AA0398E8
:103C400000F088F9044602A9002000F025FD204676
:103C500010BC5DF814FB0000994600087CB50446D2
:103C600000201D46164600290BD0491ECDE9004113
:103C7000044B6A462946304600F06CF9009A002150
:103C800011707CBD83460008490050EAC12018BF6E
:103C900004204A0D18BF40F0010040F2FF72B2EB61
:103CA000515F08BF40F00200012808BF052070479F
:103CB00000487047BC0A00202DE9F0414F1E00EB80
:103CC000C7010446D1E9000115461E4637F0060239
:103CD0000DD02A463346FCF7DBFB7F1E04EBC703FF
:103CE000D3E90023FCF72DFB37F00602F1D1022FB8
:103CF00025D0042F13D0062F18BFBDE8F0812A4627
:103D00003346FCF7C5FBD4E90A23FCF71AFB2A4625
:103D10003346FCF7BDFBD4E90823FCF712FB2A4627
:103D20003346FCF7B5FBD4E90623FCF70AFB2A4629
:103D30003346FCF7ADFBD4E90423FCF702FB2A462B
:103D40003346FCF7A5FBD4E90223FCF7FAFA2A462E
:103D50003346FCF79DFBD4E90023BDE8F041FCF7B6
:103D6000F0BA00000022134610460149FCF7D2BD0C
:103D70000000F03FFCF7E5BA00221346104611465A
:103D8000FCF7C8BD40F2013200204FF0E041FCF7E3
:103D900030BE0000024A00201107FCF72ABE0000D6
:103DA00001FDFFFF02E008C8121F08C1002AFAD176
:103DB00070477047002001E001C1121F002AFBD1AB
:103DC000704700000149086070470000BC0A0020ED
:103DD0002DE9FF5F82B00021DDE90430020DDDF83E
:103DE00040B0034318D044F61050A2F2FF324243D1
:103DF0001514119801281FD0A5EB0B00401C5FEA99
:103E0000000A4FF000064E4FDFF83891B04650469A
:103E100015D5CAF1000413E0119801244AA3012822
:103E200001D16FEA0B010298119AC0E90031C0E993
:103E3000024206B0BDE8F09FCBF10000DFE7044688
:103E40000021404A491842EB0450CDE9001012E02D
:103E5000E00707D032463B4640464946FCF718FB90
:103E60008046894632463B4610461946FCF710FB11
:103E700006460F466410002CEAD1DDE90401DDE9B5
:103E80000023BAF1000F06DAFCF702FB42464B466C
:103E9000FCF7FEFA05E0FCF73DFD42464B46FCF719
:103EA00039FD04460E460022284BFCF7CDFB03D813
:103EB0004FF0FF30014607E00022254B20463146F7
:103EC000FCF73FFAFCF7ACFD102409E0002C0ADBFC
:103ED0000A220023FCF7F0FB039B30321A55641EC4
:103EE00050EA0102F2D1641C039AC4F11103144494
:103EF000119A012A03D0012208430DD10AE0084398
:103F000004D000204FF0110B119072E7A3EB0B05CA
:103F10006D1E0DE05B4504DD4FF0000205F101056B
:103F200004E003DA4FF00002A5F10105002AECD00D
:103F300002981199C0E90231C0E9004579E7000013
:103F4000000014400000F03F300000000000F0438B
:103F50000000E03F2DE9FF4F95B09B46894606469D
:103F600000250FE2252877D100242746F84A0121B1
:103F7000059400E0044316F8013F203B01FA03F0EA
:103F80001042F7D130782A2811D06FF02F03307803
:103F9000A0F13002092A16D8059A44F0020402EB77
:103FA000820203EB42021044761C0590EFE759F8B9
:103FB000042B0592002A03DA504244F40054059081
:103FC00044F00204761C30782E2816D116F8010F22
:103FD00044F004042A280DD06FF02F023078A0F1AD
:103FE0003003092B09D807EB870302EB4303C718FB
:103FF000761CF3E759F8047B761C30786C280FD0D8
:1040000006DC4C2817D068280DD06A2814D104E0AB
:10401000742810D07A280FD10DE044F400140AE07F
:1040200044F4801401E044F440147278824202D1D6
:1040300004F58014761C761C307866280BD013DCCF
:10404000582877D009DC002875D04528F6D04628B6
:10405000F4D047281AD19DE118E0632835D06428B0
:1040600079D0652812D195E1702873D008DC6728D3
:10407000F1D069286FD06E280DD06F2806D1B5E039
:1040800073282CD0752875D0782874D05A46179983
:1040900090476D1C75E1C4F30250022809D0032833
:1040A0000DD0D9F8001004280DD00D6009F10409D5
:1040B00067E1D9F80010EA17C1E90052F6E7D9F82C
:1040C00000100D80F2E70D70F0E719F8041B8DF871
:1040D000001000208DF80100EA46012003E059F8A5
:1040E00004AB4FF0FF3061074FF0000102D40DE048
:1040F00008F101018846B9420FDA8045F8DB1AF869
:1041000008100029F4D108E008F101018846814235
:10411000FADB1AF808100029F6D105985B46A0EBE7
:10412000080721463846179A00F094FA284400EB15
:10413000080507E04DE029E10DE01AF8010B5A46A9
:1041400017999047B8F10108F7D25B4621463846E7
:10415000179A13E142E00A220092C4F302524FF090
:10416000000A022A08D059F804CB032A4FEAEC715E
:104170000AD00DE029E02AE009F1070121F0070249
:10418000F2E802C1914609E00FFA8CFC4FEAEC71AB
:10419000042A03D14FFA8CFC4FEAEC71002907DAAC
:1041A0000A460021DCF1000C61EB02012D2202E045
:1041B000220504D52B228DF80420012203E0E2071A
:1041C00001D02022F7E7904659E00A2102E01022B0
:1041D0000DE010214FF0000A00910BE010224FF08B
:1041E000000A44F004040827009203E008224FF07C
:1041F000000A0092C4F30252022A05D059F804CBF7
:104200000021032A08D009E009F1070121F0070283
:10421000F2E802C1914605E01FFA8CFC042A01D1A4
:104220000CF0FF0C4FF00008220728D5702806D0AC
:10423000009B83F0100353EA0A0305D00EE04022EE
:104240008DF80420012208E05CEA010206D0302249
:104250008DF804208DF8050002229046009B83F023
:10426000080353EA0A030AD15CEA010201D162079A
:1042700005D530228DF804204FF001087F1E582804
:1042800004D034A003900EA802900DE036A0F9E708
:1042900053466046009AFCF70FFA84460398825C06
:1042A0000298401E029002705CEA0100F0D1029870
:1042B00006A9081A00F1200A600702D524F4803408
:1042C00000E00127574502DDA7EB0A0000E00020CF
:1042D00000EB0A01009005984144401A0590E00364
:1042E00006D45B462146179A059800F0B3F90544B9
:1042F000002706E001A85A46C05D179990476D1C3B
:104300007F1C4745F6DBE0030CD55B462146179A38
:10431000059800F09FF9054404E030205A461799AB
:1043200090476D1C0099481E00900029F5DC08E0BC
:10433000029802995A460078491C029117999047B1
:104340006D1CBAF10001AAF1010AF1DC65E100007F
:10435000092801003031323334353637383961625B
:10436000636465660000000030313233343536371F
:1043700038394142434445460000000000F058F9F6
:104380000544761C307800287FF4ECAD19B028463F
:10439000BDE8F08F620700D4062709F1070222F07A
:1043A000070CFCE80223E14603F000485FEA080C32
:1043B00002D00FF2702C0DE05FEA045C02D50FF220
:1043C000682C07E05FEAC47C02D00FF2602C01E0A9
:1043D000AFF2700C4FF0FF3823F00043CDF850C01F
:1043E00065280CD006DC452809D046281DD0472872
:1043F0003DD13DE0662818D067287ED138E0002105
:10440000112F01DB112000E0781CCDE9000106A985
:104410000EA8FFF7DDFCDDE90F010E9A03910021E4
:10442000009207F1010A04914DE04FF0004000971F
:10443000CDE9011006A90EA8FFF7CAFCDDE90F02BD
:1044400003920E9B11990022DDF80CA000930492B8
:1044500011B9791C00EB010AB7EB0A0004D4C0F1D2
:10446000FF3007F1010A0490AAEB0700019044E035
:10447000012F00DA01270021112F01DD112000E0BA
:104480003846CDE9000106A90EA8FFF7A1FCDDE939
:104490000F010E9A0391002104910092BA46210760
:1044A0000CD40399514500DA8A46BAF1010F05DDB3
:1044B000009AAAF10101515C302908D0B84202DA11
:1044C00010F1040F06DA0121CDE9011015E0AAF17F
:1044D0000101E9E7002805DC049901440491AAEBF5
:1044E000000102E0411C514500DD8A460499401A52
:1044F000401C01904FF000400290200704D4019826
:10450000504501DBCDF8048000208DF84F00029863
:104510000DF14F07B0F1004F25D02B200E900298DF
:104520004FF0020800280CDA404202902D200E9035
:1045300007E00A210298FCF7A9F83031029007F849
:10454000011DB8F10001A8F10108F2DC0298002871
:10455000EFD1791E0E980870307800F0200040F0FE
:10456000450007F8020D12A8C01B00F107081498B7
:10457000007800B1012000EB0A01019801EBE07125
:1045800005984144401A401E0590E00306D45B465E
:104590002146179A059800F05DF8054414980078B4
:1045A00018B15A46179990476D1CE00324D55B4615
:1045B0002146179A059800F04DF805441CE0049830
:1045C000002807DBDDE90301884203DD0098405C39
:1045D000179901E0179930205A469047049805F141
:1045E0000105401C04900198401E019004D12E202A
:1045F0005A46179990476D1CBAF10001AAF1010AB9
:10460000DDDC05E017F8010B5A46179990476D1C41
:10461000B8F10001A8F10108F4DC5B462146179AC5
:104620000598ABE62D0000002B00000020000000E4
:104630002DE9F041044600251E461746880404D49F
:1046400005E039462020B0476D1C641EF9D5284688
:10465000BDE8F0812DE9F041044600251E46904654
:10466000C80301D5302700E02027880404D505E0E1
:1046700041463846B0476D1C641EF9D52846BDE852
:10468000F0814A68002A06D00A68531C0B6010703B
:104690004868401E486070470A68531C0B601070E1
:1046A0007047000030B589B04FF4FA60FEF7F8FFAC
:1046B000FEF7BCF9A94BAA4AAA49AB48FCF713FC80
:1046C000462000F0A1FA18B9FDF712FBA7490860CF
:1046D0004FF40051A648FDF73AF9A6490870A648DC
:1046E0000078052831D1FEF7A1F91720A3490870F9
:1046F0000FE0A2490978902202EB0111C8B29F494C
:104700000A780121FEF722FA9C480078401C9B4958
:1047100008709A4800781B28EBDB99480068143031
:1047200097490860084697A1026806A8FFF782FA31
:10473000022306AA05212D20FEF732FA4FF4167047
:10474000FCF74CFC00208C4908708B480078062848
:1047500037D1FEF76BF91720884908700FE08749B9
:104760000978902202EB0111C8B284490A7801212C
:10477000FEF7ECF981480078401C804908707F48BA
:1047800000781B28EBDB7E48006814387C49086001
:1047900008460068002801DA00200860784879A1FE
:1047A000026806A8FFF746FA022306AA05212D2073
:1047B000FEF7F6F94FF41670FCF710FC00206E4976
:1047C00008706F480068FBF7D5FE0446674801682B
:1047D0002046FBF751FF2FD86B480078012827D1DE
:1047E000FEF724F91220654908700FE06349097843
:1047F000F42202EB0111C8B260490A780421FEF7E5
:10480000A5F95E480078401C5C4908705B48007858
:104810001728EBDB002407E000F0F0F800F0EEF8DA
:104820006420FCF7DBFB641C0A2CF5DB00F032FC97
:104830000020554908702DE05348007838BBFEF73A
:10484000F5F80D204D4908700FE04C4909784C22CD
:1048500002EB0111C8B249490A780421FEF776F942
:1048600046480078401C45490870444800781228A2
:10487000EBDB002407E000F0C1F800F0BFF8642093
:10488000FCF7ACFB641C0A2CF5DB00F0B3FC012048
:104890003D4908703A4801683CA0FCF767FA334884
:1048A0000068FBF7BEFE04460D463C48007808B1A0
:1048B0003BA000E03DA02F49097809B13DA100E0EF
:1048C00037A1CDE90245CDE90410244800780090D5
:1048D0002348037823480278234801783748FCF7B7
:1048E00045FA37A13848FFF7A5F90223364A0021D7
:1048F0002020FEF755F91B4803781B48027833A1A6
:104900003148FFF797F902232F4A19460020FEF796
:1049100047F9124803781248027830A12A48FFF775
:1049200089F90223284A04210020FEF739F90F48AB
:104930000068FBF776FE044622460B462BA1224870
:10494000FFF778F90223204A06210020FEF728F914
:104950000120FCF769FB09B030BD000030000020E9
:104960002F0000202E0000202D0000203400002009
:1049700000100140380000202900002028000020FD
:10498000880A002025640000A00A00206C6967687E
:10499000747661203D2025640A0000002B00002071
:1049A000A1BEC6F4B6AFA1BF00000000CDA3D6B92A
:1049B00000000000B9D8B1D500000000A46E0008C6
:1049C00057656C636F6D6500C00B002048756D3ACC
:1049D00025642E25642025250000000054656D7097
:1049E0003A25642E25642043000000004C69676866
:1049F000743A252E3166204C7800000010B5012154
:104A00000548FCF7AFFF3220FCF7E8FA0121024825
:104A1000FCF7A6FF10BD00000008014070B5044679
:104A200022E02568A08900F4807020B9A06810B148
:104A3000A068FFF7F3FFA08900F4807028B920690F
:104A400018B10B49206909688847A08900F40070F3
:104A500028B9206A18B10649206A096888472046A3
:104A60000349096888472C46002CDAD170BD000044
:104A7000B00A00200148006870470000A80A002022
:104A800070B505460E46AC6800E024682CB131468E
:104A9000206A00F04FF80028F7D1204670BD0000D2
:104AA00010B5282005490968884704461CB128210B
:104AB0002046FBF778FB204610BD0000AC0A002022
:104AC00010B5044600221146204600F001F810BD42
:104AD0002DE9F04780460D4616460024FFF7E0FF1B
:104AE00007460020124908600FB9BDE8F08740462C
:104AF00001F0A8FC81464946384600F059FF0446BB
:104B000024B93846FFF78AFF0020EEE766B1204659
:104B100001F098FC0446207830B13846FFF77EFF5C
:104B2000034804600020E0E705B12C603846DCE76C
:104B3000A80A002070B504460D462CB9AC4201D03D
:104B4000012070BD0020FCE70DB90120F9E705E068
:104B5000207808B90020F4E7641C6D1C2078FBF76E
:104B600003FB06462878FBF7FFFA8642F0D0207850
:104B7000FBF7FAFA06462878FBF7F6FA301AE0E770
:104B800010B5002821D0114B0022001F196803E046
:104B9000814203D80A4649680029F9D152B1136805
:104BA000841A9C4204D1006818441060104602E048
:104BB000506000E0186039B102680B1A934203D1CB
:104BC0000B681A4402604968416010BDB40A0020B5
:104BD00010B54FF400700B49086000F023F84FF453
:104BE00080700849091F086000F01CF84FF48070BD
:104BF0000449086000F016F84FF400700149091FDD
:104C0000086010BD140C014070B5044600F07CF83B
:104C1000204600F04BF800F0A3F8054600F08EF8AF
:104C2000284670BD002001E0411CC8B20A28FBDB09
:104C30007047000010B54FF4007009490860FFF795
:104C4000F1FF4FF4807006490860FFF7EBFF4FF467
:104C500080700349091D0860FFF7E4FF10BD0000E4
:104C6000100C014070B50024002518E06006040E09
:104C70004FF480700C490860FFF7D4FF0A480838E9
:104C8000006800F4007008B1601CC4B24FF480707A
:104C90000549091D0860FFF7C5FF681CC5B2082D4E
:104CA000E4DB204670BD0000100C014070B50446E6
:104CB000002524E004F0800020B14FF40070114979
:104CC000086004E04FF400700E49091D0860FFF70A
:104CD000A9FF4FF480700B490860FFF7A3FF4FF462
:104CE00080700849091D0860072D02D14000091F86
:104CF00008606006040EFFF795FF681CC5B2082D1A
:104D0000D8DB70BD100C014010B54FF400700A499B
:104D1000086040100860FFF785FF4FF400700649F7
:104D2000091D0860FFF77EFF4FF480700249091DDE
:104D30000860FFF777FF10BD100C014010B54FF46D
:104D40000070064908604010091F0860FFF76AFFFD
:104D50004FF400700149091F086010BD140C014098
:104D600010B54FF400700E490860FFF75BFF4FF479
:104D700080700B490860FFF755FF09480838006844
:104D800000F4007008B1012400E000244FF48070AA
:104D90000349091D0860FFF745FF204610BD0000CC
:104DA000100C014088B04FF000090024FCF776FF9A
:104DB000FBF762FFFCF7F0F8FCF718FEFCF73EF893
:104DC000FDF756FEFBF7A5FFFDF7CAFDFCF762FCF9
:104DD000FBF76CFFB420FCF701F9FF20FDF72BFE79
:104DE0004FF4E130FEF72CFE4FF4E130FEF780FE89
:104DF000FCF784F903E04FF4FA70FCF7EFF8FDF7E5
:104E000045FF0028F7D11B206B49087019E06A495B
:104E100009780801FBF7BCFB07460022674BFBF74C
:104E200090FA0546FBF7E4FB00F0FF0A62480278BF
:104E300004215046FDF78AFE5F480078401C5E4919
:104E400008705D4800782028E1DB0220FCF7ECF8D0
:104E50000020FDF7F0FDB420FEF722FCFFF7CEFDA9
:104E60000020554908700FE053490978122202EBDF
:104E70000111C8B250490A780021FDF767FE4E487B
:104E80000078401C4C4908704B4800780628EBDB42
:104E90004FF44870FEF704FCFDF7C8FD202046499A
:104EA00008700FE044490978002202EB0111C8B2F2
:104EB00041490A780221FDF749FE3F480078401C2D
:104EC0003D4908703C4800782428EBDB24203A490F
:104ED00008700FE038490978C02202EB0111C8B20E
:104EE00035490A780521FDF731FE33480078401C2A
:104EF00031490870304800782828EBDB0121304820
:104F0000FEF748FA57E009F1010080B281460A280D
:104F100037DB2C48FBF72AFF2BA0FBF727FF324893
:104F20000068FBF77EFB05460E46304800683049B6
:104F3000097809B12FA100E030A1324A12780AB1F4
:104F40002EA200E02BA2CDE90256CDE90421069065
:104F50002D4800782D490978CDE900102C480378B8
:104F60002C4802782C492D48FEF764FE2B492C482A
:104F7000FDF7B4FF1348FBF7F9FE4FF00009FCF70B
:104F800087F80320FCF792F8044614B12046FDF799
:104F9000DFFF0A20FCF722F822480078012802D01F
:104FA000022806D102E0FFF77DFB03E0FDF7E2FBFC
:104FB00000E000BF00BFA6E728000020006079C025
:104FC0003C000020F06D0008B7A2B2BCCAFDBEDDF7
:104FD000202D2D2D2D2D204F6E654E65745F507543
:104FE000626C69736800000034000020880A0020A9
:104FF0002B00002022747275652200002266616C0D
:105000007365220038000020300000202F000020AF
:105010002E0000202D000020586E0008C00A00203D
:10502000A26400082A000020F0B50B30154D20F0D6
:1050300007010024144A0FE003688B420BD38B4214
:1050400005D95E1A43184768C3E9006700E0436862
:10505000136002C004E0021D10680028ECD1204655
:10506000002802D1286808B10020F0BD064A074890
:105070001060074A121A22F00702C0E9002401203A
:105080002860D7E7B80A0020B40A0020DC0F00200F
:10509000D811002070B50024A6E00025A0E0102162
:1050A0005348FCF75DFC20215148FCF759FC402196
:1050B0004F48FCF755FC80214D48FCF753FC40F26B
:1050C000DC50FBF7BFFF10214948FCF749FC2021C9
:1050D0004748FCF745FC40214548FCF743FC80214C
:1050E0004348FCF73FFC40F2DC50FBF7ABFF1021DC
:1050F0003F48FCF735FC20213D48FCF731FC4021BE
:105100003B48FCF72FFC80213948FCF729FC40F292
:10511000DC50FBF797FF10213548FCF721FC2021DC
:105120003348FCF71FFC40213148FCF71BFC802171
:105130002F48FCF715FC40F2DC50FBF783FF1021F1
:105140002B48FCF70DFC20212948FCF70BFC4021E3
:105150002748FCF705FC80212548FCF701FC40F2BC
:10516000DC50FBF76FFF10212148FCF7FBFB2021EF
:105170001F48FCF7F7FB40211D48FCF7F1FB80219D
:105180001B48FCF7EDFB40F2DC50FBF75BFF102106
:105190001748FCF7E7FB20211548FCF7E1FB40210D
:1051A0001348FCF7DDFB80211148FCF7D9FB40F2E6
:1051B000DC50FBF747FF10210D48FCF7D1FB202105
:1051C0000B48FCF7CDFB40210948FCF7C9FB8021C7
:1051D0000748FCF7C5FB40F2DC50FBF733FF6D1CC2
:1051E000082DFFF45CAF641C402CFFF456AF70BD7B
:1051F0000008014070B50024A6E00025A0E01021C1
:105200005348FCF7AFFB20215148FCF7A9FB402194
:105210004F48FCF7A5FB80214D48FCF7A1FB40F26D
:10522000DC50FBF70FFF10214948FCF79BFB2021C6
:105230004748FCF797FB40214548FCF791FB80214C
:105240004348FCF78DFB40F2DC50FBF7FBFE1021DE
:105250003F48FCF785FB20213D48FCF783FB4021BC
:105260003B48FCF77DFB80213948FCF779FB40F295
:10527000DC50FBF7E7FE10213548FCF771FB2021DD
:105280003348FCF76FFB40213148FCF76BFB802172
:105290002F48FCF765FB40F2DC50FBF7D3FE1021F2
:1052A0002B48FCF75DFB20212948FCF759FB4021E6
:1052B0002748FCF757FB80212548FCF751FB40F2BB
:1052C000DC50FBF7BFFE10212148FCF749FB2021F1
:1052D0001F48FCF745FB40211D48FCF743FB80219C
:1052E0001B48FCF73FFB40F2DC50FBF7ABFE102104
:1052F0001748FCF735FB20211548FCF731FB40210E
:105300001348FCF72DFB80211148FCF72BFB40F2E2
:10531000DC50FBF797FE10210D48FCF721FB202104
:105320000B48FCF71DFB40210948FCF719FB8021C5
:105330000748FCF715FB40F2DC50FBF783FE6D1CC1
:10534000082DFFF45CAF641C402CFFF456AF70BD19
:10535000000801402DE9F04705460C4620785B28FF
:1053600004D0264804600020BDE8F0870520E860EE
:10537000601C01F067F8044620785D2801D1601CAC
:10538000F2E7FFF78DFB0646A860A86808B9002081
:10539000EAE7204601F056F880464146304600F0E4
:1053A00007FB074601F04EF804460CB90020DBE786
:1053B00017E0FFF775FB071E00D1D5E737607E6069
:1053C0003E46601C01F03EF881464946304600F0FA
:1053D000EFFA804601F036F804460CB90020C3E726
:1053E00000BF20782C28E4D020785D2801D1601CF3
:1053F000BAE7024804600020B6E70000A80A0020CF
:10540000014600220878302806DB0878392803DCBA
:1054100008783038024415E00878412806DB08781F
:10542000462803DC0878373802440BE00878612806
:1054300006DB0878662803DC08785738024401E068
:10544000002070471201491C0878302806DB0878D4
:10545000392803DC08783038024415E00878412800
:1054600006DB0878462803DC0878373802440BE06E
:105470000878612806DB0878662803DC0878573846
:10548000024401E00020DCE71201491C08783028C2
:1054900006DB0878392803DC08783038024415E048
:1054A0000878412806DB0878462803DC0878373876
:1054B00002440BE00878612806DB0878662803DCE4
:1054C00008785738024401E00020BAE71201491C6D
:1054D0000878302806DB0878392803DC087830386B
:1054E000024415E00878412806DB0878462803DCEA
:1054F0000878373802440BE00878612806DB087822
:10550000662803DC08785738024401E0002098E759
:10551000104696E72DE9F04F8BB083468A4600206F
:10552000044605460026674F0021884689460990B3
:10553000012008909AF800002D2802D1624F0AF14C
:10554000010A9AF80000302801D10AF1010A9AF8FC
:105550000000312822DB9AF8000039281EDC00BF49
:105560001AF8011BA1F13000FBF712F80022574B8B
:10557000CDE9060120462946FAF78AFFCDE9040164
:10558000DDE90623FAF7DDFE04460D469AF8000031
:10559000302803DB9AF800003928E1DD9AF8000092
:1055A0002E2830D19AF8010030282CDB9AF801001F
:1055B000392828DC0AF1010A00BF1AF8011BA1F101
:1055C0003000FAF7E5FF0022404BCDE90601204606
:1055D0002946FAF75DFFCDE90401DDE90623FAF774
:1055E000B0FE04460D460022364B40464946FAF7C7
:1055F00049FF804689469AF80000302803DB9AF874
:1056000000003928D9DD9AF80000652803D09AF8FF
:105610000000452823D10AF1010A9AF800002B283E
:1056200002D10AF1010A08E09AF800002D2804D1FD
:105630004FF0FF3008900AF1010A08E01AF8010B58
:105640003038099901EB810100EB410009909AF88B
:105650000000302803DB9AF800003928EEDDDDE990
:10566000082101FB02F0FAF793FF42464B46CDE9D1
:105670000001FAF766FE02460B46CDE90201002062
:10568000124900F0F3F922462B46CDE906013046D7
:105690003946FAF7FDFECDE90401DDE90623FAF704
:1056A000F7FE04460D46CBE9064520462946FAF7A3
:1056B00080FFCBF814000320CBF80C0050460BB051
:1056C000BDE8F08F0000F03F0000F0BF0000244074
:1056D0002DE9F04706460C4620787B2804D0404848
:1056E00004600020BDE8F0870620F060601C00F038
:1056F000A9FE044620787D2801D1601CF2E7FFF75F
:10570000CFF90546B060B06808B90020EAE7204646
:1057100000F098FE80464146284600F063F80746B0
:1057200000F090FE04460CB90020DBE728692862EF
:105730000020286120783A2803D0294804600020FE
:10574000D0E7601C00F07EFE80464146284600F00F
:105750002FF9074600F076FE04460CB90020C1E799
:1057600031E0FFF79DF9071E00D1BBE72F607D6098
:105770003D46601C00F066FE81464946284600F022
:1057800031F8804600F05EFE04460CB90020A9E71F
:10579000286928620020286120783A2803D0104820
:1057A000046000209EE7601C00F04CFE81464946E4
:1057B000284600F0FDF8804600F044FE04460CB98F
:1057C00000208FE700BF20782C28CAD020787D28C1
:1057D00001D1601C86E702480460002082E70000D7
:1057E000A80A00202DE9F05F8346884608F10104ED
:1057F000002798F80000222805D06A48C0F80080E9
:105800000020BDE8F09F04E014F8011B5C2900D1E2
:10581000641C2078222804D0207810B1781C071E40
:10582000F2D1781C6049096888478146B9F1000FB8
:1058300001D10020E5E708F101044D469EE0207803
:105840005C2804D014F8010B05F8010B96E0641CE9
:105850002078722818D006DC622809D066280BD080
:105860006E287DD10CE0742812D07528F9D113E090
:10587000082005F8010B7FE00C2005F8010B7BE008
:105880000A2005F8010B77E00D2005F8010B73E005
:10589000092005F8010B6FE0601CFFF7B1FD06461B
:1058A000241DB6F55C4F02D3B6F5604F00D306B9A0
:1058B00062E0B6F5584F1CD3B6F55C4F19D260784C
:1058C0005C2802D1A078752800D055E0E01CFFF7D5
:1058D00097FD8246A41DBAF55C4F02D3BAF5604F1E
:1058E00000D349E0C6F30901504661F39F2000F55B
:1058F00080360427802E01D2012708E0B6F5006F1C
:1059000001D2022703E0B6F5803F00D203273D44D1
:10591000012F20D0022F15D0032F0AD0042F24D11D
:1059200006F0BF0040F08001681E05460170B60910
:1059300000BF06F0BF0040F08001681E0546017000
:10594000B60900BF06F0BF0040F08001681E0546A2
:105950000170B60900BF1548C05D3043C1B200E018
:1059600006E0681E0546017000BF00BF3D4403E02D
:10597000207805F8010B00BF00BF641C20782228A6
:1059800003D0207800287FF45AAF002028702078B8
:10599000222800D1641CCBF810900420CBF80C0016
:1059A00020462EE7A80A0020AC0A0020CC6C000894
:1059B00070B505460C460CB9002070BD042224A128
:1059C0002046FAF732FC18B90220E860201DF4E7FF
:1059D000052221A12046FAF728FC18B90020E8602A
:1059E000601DEAE704221EA12046FAF71EFC20B93A
:1059F0000120E8606861201DDFE72078222804D1BB
:105A000021462846FFF7EEFED7E720782D2805D05F
:105A10002078302807DB2078392804DC2146284606
:105A2000FFF778FDC9E720785B2804D12146284696
:105A3000FFF790FCC1E720787B2804D12146284657
:105A4000FFF746FEB9E7084804600020B5E700000C
:105A50006E756C6C0000000066616C736500000080
:105A60007472756500000000A80A00202DE9F04D51
:105A70001D460C4698B0174621F0004123F0004324
:105A8000002814BF4FF0010C4FF0000C0CEB440C3D
:105A9000FE4A0CEB02064FEA620C66452BD33E0031
:105AA00018BF012606EB45061644F94A964222D352
:105AB000F84A53EA070C02D0944205D148B918B00D
:105AC00000201146BDE8F08D002808BF4FF0000C03
:105AD00001D04FF0010C0CEB440212F5001F0AD864
